:020000040800F2
:1000000070060020010100089F2B0008A7200008AF
:100010009D2B0008610A0008312F00080000000035
:10002000000000000000000000000000032C000899
:10003000630A000800000000012C0008892C000859
:100040001B0100081B0100081B0100081B01000820
:100050001B0100081B0100081B0100081B01000810
:100060001B0100081B0100081B0100081B01000800
:100070001B0100081B0100081B0100081B010008F0
:100080001B0100081B0100081B0100081B010008E0
:100090001B0100081B0100081B0100081B010008D0
:1000A0001B0100081B0100081B0100081B010008C0
:1000B0001B0100081B010008312D00081B0100086E
:1000C0001B0100081B0100081B0100081B010008A0
:1000D0001B0100081B0100081B0100081B01000890
:1000E000650A00081B0100081B010008DFF80CD09E
:1000F00000F0A4FC004800470D3E000870060020F8
:100100000648804706480047FEE7FEE7FEE7FEE7B1
:10011000FEE7FEE7FEE7FEE7FEE7FEE7E92C000864
:10012000ED000008202A04DB203A21FA02F0002129
:10013000704721FA02F3D040C2F1200291400843F7
:1001400019467047D2B201E000F8012B491EFBD2DC
:1001500070470022F6E710B513460A4604461946D2
:10016000FFF7F0FF204610BDF0B480EA0102D40F83
:100170004200B2EB410F02D20246084611464A0045
:1001800042D0C30DDDB2C1F3C752AD1A202D35DA0E
:10019000C1F3160141F4000204B15242C5F1200638
:1001A00002FA06F12A411044B3EBD05F23D0C4B168
:1001B000012DA0EBC35009DCF0BC4FF0004202EA75
:1001C000C352DBB200F5000000F043BB400000F179
:1001D000807000EBC350A0F1807040EAD1704900FC
:1001E00009E0490841EAC071A0EBC35000F50000E6
:1001F000400800EBC350F0BC00F022BB614201227A
:1002000002EB4101001BF6E7F0BC704781F00041B2
:10021000AAE780F00040A7E730B480EA010202F0CC
:10022000004530F0004221F0004013D090B1C30DE2
:10023000D40DC2F31601C0F31600E41A41F4000114
:1002400040F400027D34914201D3641C00E0490077
:10025000002C02DA30BC002070474FF4000000236D
:10026000914201D3891A034340084FEA4101F7D173
:1002700051B1914202D14FF0004105E002D24FF05E
:10028000010101E06FF0010103EBC450284430BCD0
:1002900000F0D6BA420005D0C0F3C7525242914294
:1002A00001DC0020704700EBC15070472DE9FE4F84
:1002B000804681EA0300C00F0C46009021F0004107
:1002C00023F00045B8EB0200A94105D24046214683
:1002D00090461C460B46024623F00040104347D090
:1002E000270DC7F30A00C3F30A510290401A019088
:1002F00040286BDAC3F3130040F4801B0098924649
:1003000020B10023D2EB030A63EB0B0B0198594693
:10031000C0F14002504600F072FA06460D465046C3
:100320005946019A00F07AFA10EB08006141002466
:1003300087EA115284EAE7731A4340D0009A62B305
:10034000019A012A4FEA075215DC001B61EB0201FA
:100350004FF0004202EA0752CDE90042001C41F58D
:10036000801132462B4600F0B1FA03B0BDE8F08FA1
:1003700040462146F9E7001B61EB0201001C41F5F4
:10038000801300185B412018A2F5001747EB03010A
:1003900040EAD570B6196D4111E06D084FEA360696
:1003A00045EAC0754FEA0752001B61EB0201001CD1
:1003B00041F5801149084FEA300000195141324699
:1003C0002B4603B0BDE8F04F00F071BA009801224F
:1003D00040000023D0EB020263EBE073009821465B
:1003E0004FEAE074B8EB000061EB0401E9E783F049
:1003F00000435BE781F0004158E72DE9FE4F81EAB9
:10040000030404F0004421F0004100944FF0000B7D
:1004100023F0004350EA01045ED052EA03045BD0AB
:10042000C3F30A54C1F30A552C44A4F2F3340194E3
:10043000A0FB0254C1F3130141F48011C3F3130371
:1004400043F4801301FB024400FB034E840A970A25
:1004500044EA815447EA8357A4FB076802958D0A52
:1004600005FB07854FEA932C04FB0C542705029DDE
:100470004FEA065847EA1637B5EB08056EEB070C4E
:10048000870E920E47EA811742EA8312A7FB020108
:10049000B6EB0B0164EB00042B0D43EA0C335E1842
:1004A00044EB1C50DA465146E7FB0201C5F3130446
:1004B0004FEA0B3343EA14534FEA0432019C43EAF8
:1004C0000603A4F10C040294009CCDE900B400F0F2
:1004D000FDF903B0BDE8F08F00200146F9E72DE9F2
:1004E000F04D81EA030404F0004B21F0004514466E
:1004F0004FF0000A23F0004150EA050220D054EAF0
:1005000001021DD0C5F30A570246C5F31303C1F318
:100510001300C1F30A5640F4801543F48013A7EB8F
:100520000608101BD64608F2FD3873EB050002D30F
:1005300008F1010801E092185B41B8F1000F03DAFD
:1005400000200146BDE8F08D00204FF480110646E2
:1005500084460EE0171B73EB050705D3121B63EBF4
:10056000050306434CEA010C49084FEA3000921893
:100570005B4150EA0107EDD152EA030012D082EA52
:10058000040083EA0501084305D0101BAB4106D2E5
:100590000122002306E000224FF0004302E06FF04A
:1005A000010253101AEB06004CEB085110EB0A0045
:1005B00041EB0B01BDE8F04D00F079B970B521F0C9
:1005C000004303430CD0C1F30A550024D5EB0405C6
:1005D00064EB0403D617AD1AB34102DB00200146D9
:1005E00070BD201841EB025170BDC10F80EAE07070
:1005F0000844CA079623002100F02BB99623002255
:10060000114600F026B90EB5C10F80EAE07008442B
:10061000CA07002140F233438DE80E000A460B461C
:1006200000F054F903B000BD0EB540F23341029121
:100630000021CDE900110A460B4600F047F903B04E
:1006400000BD70B5C1F30A5201F000450024C1F3AA
:10065000130140F2FF3341F480119A4201DA002085
:1006600070BD40F233439A42A2F2334203DC52425D
:10067000FFF758FD00E090402C43F1D0404270BDA0
:10068000C1F30A5210B5C1F3130140F2FF3341F434
:1006900080119A4201DA002010BD40F233439A42A1
:1006A000A2F2334203DC5242FFF73CFD10BD904002
:1006B00010BD00F0004230F000400AD0C10D01F53D
:1006C0006071C0F3160042EA0151C20840071143AD
:1006D000704700200146704730B5041E71F10004D8
:1006E00004DB4FF00044404264EB0101141E73F13F
:1006F000000405DB1C464FF00043524263EB040349
:100700008B4208BF824230BD30B5041E71F1000437
:1007100004DB4FF00044404264EB0101141E73F10E
:10072000000405DB1C464FF00043524263EB040318
:10073000994208BF904230BD01F0004330B421F02F
:10074000004150EA010206D00A0DA2F56072C1F321
:100750001301002A02DC30BC00207047440F44EA39
:10076000C104C100E01830BC00EBC25000F068B812
:1007700030B50B46014600202022012409E021FA71
:1007800002F59D4205D303FA02F5491B04FA02F56E
:100790002844151EA2F10102F1DC30BD2DE9F05F05
:1007A0000546002092469B468846064681464024E0
:1007B0001BE02846414647462246FFF7B3FC534616
:1007C0005A46C01A914110D311461846224600F0ED
:1007D00016F82D1A67EB01084F462246012000212A
:1007E00000F00DF817EB00094E41201EA4F10104A2
:1007F000DFDC484631462A464346BDE8F09F202AC2
:1008000004DB203A00FA02F1002070479140C2F167
:10081000200320FA03F3194390407047202A06DB97
:10082000CB17203A41FA02F043EAE07306E041FABE
:1008300002F3D040C2F120029140084319467047AC
:100840000029A8BF7047401C490008BF20F00100E4
:10085000704710B4B0FA80FC00FA0CF050EA0104C2
:1008600004BF10BC704749B1CCF1200421FA04F454
:1008700011FA0CF118BF012121430843A3EB0C012D
:10088000CB1D4FEA00614FEA102042BF002010BC90
:10089000704700EBC35010440029A4BF10BC704740
:1008A000401C490008BF20F0010010BC704710B583
:1008B000141E73F1000408DA401C41F10001921883
:1008C0005B411A4301D120F0010010BD2DE9F04D2C
:1008D00092469B4611B1B1FA81F202E0B0FA80F281
:1008E00020329046FFF78BFF04460F4640EA0A008D
:1008F00041EA0B0153465A46084313D0114653EAC6
:10090000010019D0C8F140025046FFF70BFC054624
:100910000E46504659464246FFF771FF084305D040
:10092000012004E020463946BDE8F08D0020054353
:1009300046EAE0762C4337430A986305E40AA0EBC5
:1009400008000022FD0A44EA47540A3002D500207C
:100950000146E9E7010510196941DDE9084500197B
:100960006941BDE8F04DA2E72DE9F04D00231A469C
:100970001B1A8A4103DB00200146BDE8F08DC1F35C
:100980000A52C1F3130141F480154FF0000BD10757
:1009900002D100186D41521E0027044640F2FF119B
:1009A000384601EB620A3E468046024600204FF47C
:1009B0008011FFF7B7FBC2197141BB1846EB01006C
:1009C000B4EB030C75EB000C04D3E41A65EB0005E3
:1009D00017460E46241908F101006D41804634285F
:1009E000E3DDF91946EB0600091BA84103D24FF0DD
:1009F000FF32134601E0002213461BEB070046EBD3
:100A00000A51BDE8F04DFFF752BFC1F30A52C1F3DE
:100A1000130140F2FF3341F480119A4202DA0020C0
:100A20000146704740F233439A42A2F2334202DC5D
:100A30005242FFF777BBFFF7E2BE0000064C074DBE
:100A400006E0E06840F0010394E80700984710349E
:100A5000AC42F6D3FFF74EFB58420008784200083C
:100A6000FEE770474FF4005000F02CB801A002F0F0
:100A700061BA0000466174616C204572726F722029
:100A80002D3E20506C6561736520636F6E746163E9
:100A9000742056696E63656E740D0A0070B5044665
:100AA00000F018F90546601C02D0044800780444A0
:100AB00000F010F9401BA042FAD370BD40000020A6
:100AC00070470000044910B50A68024202D008606D
:100AD000FFF7F6FF10BD0000140401402DE9F84FA8
:100AE000DFF8B891002409F1040A0AF1040B234647
:100AF0000F270BF1040EC9E00125A5402A40AA42A8
:100B00007DD1674ED1F804C0ACEB0608B44532D0B5
:100B100014DCBCF1030F3AD009DCBCF1000F2AD081
:100B2000BCF1010F1CD0BCF1020F31D11DE0BCF1B2
:100B3000110F17D0BCF1120F2AD119E0B8F5881F98
:100B400019D006DCB8F5803F15D0B8F5801F1FD14D
:100B500011E0B8F5001F0ED0B8F5041F18D10AE057
:100B6000CB6815E0CB681B1D12E0CB6808330FE0A3
:100B7000CB680C330CE08B682BB1012B4FF00803D2
:100B800003D0456104E0042302E0056100E0002396
:100B9000FF2A01D8064601E000F104064FEA840569
:100BA00001D9A5F12005D6F8008007FA05FC28EA4E
:100BB0000C0803FA05F548EA0508C6F800804D68F8
:100BC000ED0062D5374DAE6946F00106AE61AD6904
:100BD00024F0030605F001050095334D06EB050CE6
:100BE000DCF80850A607360F07FA06F825EA0805CC
:100BF000DFF8B880404503D14FF0000817E044E02B
:100C0000DFF8AC80404502D14FF001080FE0DFF87B
:100C1000A480404502D14FF0020808E0DFF8988038
:100C2000404502D14FF0030801E04FF0040808FAF4
:100C300006F848EA0508CCF808804D68D9F8006045
:100C4000ED034D4601D5164300E096432E604D68F6
:100C5000DAF80060AD03554601D5164300E096432F
:100C60002E604D68DBF80060ED025D4601D516434D
:100C700000E096432E604D68DEF80060AD027546D8
:100C800001D5164300E096432E60641C0D682A4689
:100C9000E5407FF431AFBDE8F88F0000000401406B
:100CA0000000111000100240000001400008014047
:100CB000000C01400010014000140140C2680A42CB
:100CC00001D041617047016170470AB1016170470D
:100CD0000904FBE7014880687047000040000020DD
:100CE00070B504001BD094F83D00002520B984F8AD
:100CF0003C50204600F0F2FB242084F83D002068A0
:100D0000016821F00101016000F06AFD4D4A61684F
:100D1000914201D84C4900E04C49884201D201205F
:100D200070BD4B492368B0FBF1F15E6826F03F06C9
:100D30000E435E606368934206D94FF4967359433D
:100D40004FF47A73B1FBF3F12368491C1E6A26F055
:100D50003F06314319626168914210D84900401E34
:100D6000B0FBF1F2521CC2F30B02042A01D20420A0
:100D700022E0B0FBF1F0401CC0F30B001CE0A368C4
:100D8000F3B301EBC10202EB0116421EB2FBF6F215
:100D9000521C42F48042120549D093B301EBC102C8
:100DA00002EB0111401EB0FBF1F0401CC0F30B0040
:100DB00040F4804040F400402168CA694CF6FF735B
:100DC0009A431043C861D4E90701084321680A68BF
:100DD00022F0C00210430860D4E9030101432068F7
:100DE000826848F2FF339A4311438160D4E90501D8
:100DF00008432168CA6822F0FF021043C86001E07E
:100E00000EE016E02068016841F0010101602564F0
:100E1000202084F83D00256384F83E50002070BDFA
:100E200001EB4106421EB2FBF6F2521CB3E7012071
:100E3000C2E701EB4101401EB0FBF1F0401CC0F3E2
:100E40000B00B7E7A086010080841E0000093D006A
:100E500040420F002DE9F84F1F4690468A4604464F
:100E6000DDF82890FFF736FF054694F83D0020286E
:100E700079D11923012277492046009501F0BEFA65
:100E80000028F5D194F83C0001286CD0012084F8AA
:100E90003C0020680168C90703D1016841F00101E5
:100EA00001602068016821F400610160222084F85B
:100EB0003D00102084F83E0000262664C4F82480FB
:100EC0006785608D20856448E0622B464A4651461E
:100ED000204601F000F900287ED1208D5F4F68B1D7
:100EE000012814D00228206801681ED041F48061D6
:100EF000016020684169806900909DE02068416937
:100F000081690091016841F40071016094E02068FA
:100F1000016821F48061016072B6206841698169CD
:100F20000091016841F400710AE041F40061016040
:100F300072B62068416981690091016821F480617D
:100F4000016062B678E0032850D801280CD002284E
:100F50004B464FF000023946204600950FD001F075
:100F60004DFAC8BB10E073E02A464946204601F01E
:100F7000C4FA88BB20680069616A087053E001F018
:100F80003DFA48BB72B61AE02068016821F480611E
:100F9000016072B620680069616A0870606A401C6E
:100FA0006062208D401E2085608D401E60854B460E
:100FB000002239462046009501F020FA60B92068E9
:100FC000016841F40071016020680069616A08707D
:100FD000606A401C606200E00EE0218D491E2185A0
:100FE000618D491E618562B621681AE02A4649462C
:100FF000204601F082FA10B10120BDE8F88F206888
:101000000069616A0870606A401C6062218D491E37
:101010002185618D491E618521684A69D243520745
:101020000AD409690170606A401C6062208D401E0C
:101030002085608D401E6085208D002883D1202072
:1010400084F83D0084F83E6084F83C600020D4E7DA
:101050000220D2E7020010000000FFFF04000100A0
:101060002DE9F84F1F4690468A460446DDF8289041
:10107000FFF730FE054694F83D0020287FD1192364
:10108000012240492046009501F0B8F9002876D1A8
:1010900094F83C00012872D0012084F83C002068BC
:1010A0000168C90703D1016841F0010101602068AE
:1010B000016821F400610160212084F83D001020C6
:1010C00084F83E0000262664C4F824806785608D7D
:1010D00020852D48E0622B464A465146204601F0C5
:1010E00065F890B9206841698069009036E02A4629
:1010F0004946204601F034FA50B1206C042804D14E
:101100002068016841F4007101600120BDE8F88F9A
:10111000606A216800780861606A401C6062618DC5
:10112000491E6185218D491E89B221852268536936
:10113000DB435B070BD451B100781061606A401C3F
:101140006062608D401E6085208D401E20852A468D
:101150004946204601F02CF90028CED1208D0028E8
:10116000C5D154F83D0B016841F4007101602020A5
:1011700004F81E09E67766770020C7E7FFE702203C
:10118000C4E70000020010000000FFFF2DE9FF4F40
:1011900083B09A46DDE9119793460446DDF8408016
:1011A000FFF798FD054694F83D0020286FD11923DC
:1011B00001227B492046009501F020F90028F5D155
:1011C00094F83C00012862D0012084F83C0020689B
:1011D0000168C90703D1016841F00101016021687C
:1011E000086820F400600860222084F83D00402058
:1011F00084F83E0000262664C4F82480A4F82A90CF
:10120000608D20856748E062CDE9007553465A46F7
:101210002046049901F00EF800287DD1208DDFF8DA
:10122000888168B1012814D0022820D02068016884
:1012300041F4806101602068416980690090A0E00C
:101240002068416981690091016841F40071016081
:1012500097E02068016821F48061016072B620681F
:10126000416981690091016841F400710CE02168D5
:10127000086840F40060086072B6206841698169BE
:101280000091016821F48061016062B679E084E038
:1012900003284FD801280BD002283B464FF000020C
:1012A0004146204600950ED001F0A8F8A0BB0FE003
:1012B0002A463946204601F020F968BB20680069BB
:1012C000616A087054E001F099F828BB72B61AE020
:1012D0002068016821F48061016072B620680069AD
:1012E000616A0870606A401C6062208D401E208523
:1012F000608D401E60853B46002241462046009599
:1013000001F07CF840B92068016841F40071016087
:1013100020680069616A00E012E00870606A401CA1
:101320006062218D491E2185618D491E618562B6ED
:1013300021681BE02A463946204601F0DEF818B144
:10134000012007B0BDE8F08F20680069616A08706D
:10135000606A401C6062218D491E2185618D491E95
:10136000618521684A69D24352070AD4096901702C
:10137000606A401C6062208D401E2085608D401E8A
:101380006085208D002883D1202084F83D0084F8DA
:101390003E6084F83C600020D3E70220D1E70000E3
:1013A000020010000000FFFF040001002DE9FF4FC4
:1013B00083B09A46DDE9119793460446DDF84080F4
:1013C000FFF788FC054694F83D0020287FD11923BB
:1013D000012240492046009501F010F8002876D1FE
:1013E00094F83C00012872D0012084F83C00206869
:1013F0000168C90703D1016841F00101016020685B
:10140000016821F400610160212084F83D00402042
:1014100084F83E0000262664C4F82480A4F82A90AC
:10142000608D20852C48E062CDE9007553465A4610
:101430002046049900F072FF70B930E02A46394620
:10144000204601F08DF858B1206C042804D12068A2
:10145000016841F400710160012007B0BDE8F08F20
:10146000606A216800780861606A401C6062218DB2
:10147000491E89B22185628D521E62852268536998
:10148000DB435B070BD469B100781061606A401CD4
:101490006062208D401E2085608D401E6085208DFD
:1014A0000028CBD12A463946204600F081FF00288B
:1014B000CAD154F83D0B016841F40071016020204D
:1014C00004F81E09E67766770020C6E7FFE70220EA
:1014D000C3E70000020010000000FFFF30B585B038
:1014E00000210091019102910391214D0368214C4B
:1014F000122103222048AB421DD1A36943F0080307
:10150000A361A369039203F0080304931302CDE9D6
:1015100000316946FFF7E2FA1848416841F0E0619E
:1015200041F002014160E06940F40010E061E069CF
:1015300000F4001019E0124DAB4217D1A36943F03B
:101540000803A361A369039203F0080304934FF413
:101550004063CDE900316946FFF7C0FAE06940F425
:101560008000E061E06900F48000049005B030BDC7
:101570000054004000100240000C014000000140F7
:101580000058004002488168027811448160704729
:1015900040000020074810B5016841F010010160CB
:1015A000032000F075F8002000F006F800F024F8A1
:1015B000002010BD0020024070B50D4D04464FF4D0
:1015C0007A712878B1FBF0F00A490968B1FBF0F0B4
:1015D00000F0ECFA48B9102C07D200222146501E28
:1015E00000F036F800206C6070BD012070BD000076
:1015F000400000204C0000200C4808B5816941F0F3
:1016000001018161816901F001010091C16941F02D
:101610008051C161C06900F0805000900448416869
:1016200021F0E06141F00071416008BD001002400E
:1016300000000140002809DB00F01F020121914059
:101640004009800000F1E020C0F800117047000060
:10165000F0B40E4B1B680C46C3F30223C3F107051D
:10166000042D00D90425191D072901D2002300E00B
:10167000DB1E012606FA05F1491E214099409E40D5
:10168000761E16403143F0BC01F078BC0CED00E052
:10169000064900F0070208684FF6FF03184040EAC9
:1016A0000220034A10430860704700000CED00E080
:1016B0000000FA052DE9F0470F46050061D0434EC2
:1016C000306800F00700B84209D2306820F0070007
:1016D00038433060306800F00700B84251D12868C4
:1016E0003B4C810712D5400703D5606840F4E060A9
:1016F00060602878000703D5606840F4605060603F
:101700006068A96820F0F000084360602878C0078E
:1017100028D06868012810D02168022810D08907D5
:1017200000292EDA616821F0030101436160FFF7AF
:10173000D1FA804641F288390DE021688903EFE74C
:101740008901EDE7FFF7C6FAA0EB0801494502D988
:101750000320BDE8F0876068696800F00C00B0EB1A
:10176000810FEFD1306800F00700B8420BD9306824
:1017700020F0070038433060306800F00700B842BE
:1017800001D00120E5E72878400705D56068E968C1
:1017900020F4E060084360602878000706D56068A0
:1017A000296920F4605040EAC100606000F038F818
:1017B0006168084AC1F30311515CC84006490860DA
:1017C00006480068FFF7F8FE0020C2E7002002404C
:1017D00000100240544100084C000020440000204A
:1017E0000448054900684968044AC1F30221515C74
:1017F000C84070474C0000200010024064410008BF
:101800000448054900684968044AC1F3C221515C93
:10181000C84070474C00002000100240644100089E
:1018200012A185B00FC98DE80F0014A0144A0068FA
:1018300004905168134801F00C03042B10D0082BBE
:101840000ED1C1F38343C9031DF803000AD55168C3
:1018500004AAC1F34041515C0A4A5043B0FBF1F085
:1018600005B0704708494843FAE700000203040541
:10187000060708090A0B0C0D0E0F101001020000DC
:101880000010024000127A0000093D002DE9F84FD7
:10189000040070D02078C04DC00749D06868C0F3FC
:1018A0008100012807D06868C0F38100022809D1AF
:1018B0006868C00306D52868800339D560680028A9
:1018C000E7D035E06068B0F5803F0BD010B1B0F5DF
:1018D000A02F11D0286820F480302860286820F4D8
:1018E000802002E0286840F480302860606890B171
:1018F000FFF7F0F906460AE0286840F480202860E7
:10190000F0E700BFFFF7E6F9801B642873D828686A
:101910008003F7D50CE0FFF7DDF9064605E000BFD0
:10192000FFF7D8F9801B6428F0D828688003F7D423
:1019300020789A4E80074FF001094FF0000839D502
:10194000686810F00C0F07D06868C0F381000228A7
:1019500009D16868C00306D42868800714D52069B7
:10196000012808D110E02069B0B1C6F80090FFF757
:10197000B1F9074605E00AE1FFF7ACF9C01B022800
:10198000C4D828688007F7D52868616920F0F80076
:1019900040EAC10028600DE0C6F80080FFF79AF920
:1019A000074604E0FFF796F9C01B022823D82868F1
:1019B0008007F7D4207800072CD57948A169D9B1E0
:1019C000C0F80090FFF786F9074604E0FFF782F9B8
:1019D000C01B02280FD8686A8007F7D571484FF4FA
:1019E000FA510068B0FBF1F0009000BF0098411E72
:1019F0000091FAD20EE080E0C0F80080FFF76AF9AB
:101A0000074604E0FFF766F9C01B022875D8686A2C
:101A10008007F7D42078400760D5E8690027C00028
:101A200008D4E86940F08050E861E869012700F0D7
:101A3000805000905C480168C90513D40168834652
:101A400041F480710160FFF745F9824606E000BF6E
:101A5000FFF740F9A0EB0A0064284ED8DBF800003D
:101A6000C005F5D5E06801280AD008B1052813D0D3
:101A7000286A20F001002862286A20F0040002E0B1
:101A8000286A40F001002862E06841F2883B98B182
:101A9000FFF720F982460BE0286A40F00400286234
:101AA000EEE700BFFFF716F9A0EB0A0159455AD837
:101AB000286A8007F6D50CE0FFF70CF9824605E0AE
:101AC000FFF708F9A0EB0A0159454CD8286A8007AE
:101AD000F6D41FB1E86920F08050E861E06988B36E
:101AE0006968C1F38101022944D00228C6F86080E8
:101AF00004D0FFF7EFF8044638E034E0FFF7EAF8E7
:101B0000074604E0FFF7E6F8C01B02282BD8286838
:101B10008001F7D4206AB0F5803F05D16868A168DC
:101B200020F4003008436860D4E90801084369687C
:101B300021F4741108436860C6F86090FFF7CAF892
:101B4000044606E025E000BFFFF7C4F8001B0228AA
:101B500009D828688001F7D51BE000BFFFF7BAF865
:101B6000001B022802D90320BDE8F88F28688001F5
:101B7000F4D40EE00128F7D06868226A00F48031BE
:101B8000914204D1616A00F47010884201D00120B2
:101B9000EAE70020E8E700000010024000004242AF
:101BA000800442424C0000200070004010B5401EEE
:101BB000B0F1807F01D3012010BD4FF0E0246061BF
:101BC0000F21601701F0DAF90020A06107202061E1
:101BD000002010BD7047704770B590F83C20012A76
:101BE00019D0012400F83C4F0222427050F83C3CCE
:101BF0005A689D6822F070060A684968324325F0E9
:101C0000800529435A6050F83C2C916044700021B3
:101C10000170084670BD022070BD10B5040003D0ED
:101C200094F83D0010B107E0012010BD002084F8B9
:101C30003C00204600F00CF8022084F83D00211DF5
:101C4000206801F07BF8012084F83D00002010BDE1
:101C500008B500680B49884212D10B48C16941F0B0
:101C60000401C161C069002200F004000090114627
:101C70001E20FFF7EDFCBDE808401E20FFF7DABC90
:101C800008BD000000080040001002400168CA685A
:101C900042F00102CA600068816801F0070106296C
:101CA00003D0016841F0010101600020704770B568
:101CB000044690F83C00012817D0012584F83C50D8
:101CC000022084F83D002068826822F0770222F426
:101CD0007F4282600868502830D00DDC20284DD02B
:101CE00005DC98B310283BD148E0022070BD3028B5
:101CF00044D0402834D139E0602828D0702806D05C
:101D0000B0F5805F2CD0B0F5005F29D10AE0CB6838
:101D1000D1E90121206801F047F82068816841F08D
:101D2000770109E0CB68D1E90121206801F03CF896
:101D30002068816841F48041816011E0CA68496887
:101D4000206801F043F85021206807E016E0CA68D7
:101D50004968206801F04BF86021206801F02EF8F6
:101D600084F83D50002084F83C0070BDCA68496882
:101D7000206801F02BF840212068EFE72268014637
:101D80001046EBE7704770B50446006801694FF0F4
:101D90000005C943890715D4C168C943890711D40F
:101DA000E91E0161012020772068806980072046B4
:101DB00002D0FFF7E7FF04E000F098F8204600F0BB
:101DC00096F8257720680169C943490717D4C16887
:101DD000C943490713D46FF0040101610220207741
:101DE0002068806910F4407F204602D0FFF7CAFFC8
:101DF00004E000F07BF8204600F079F825772068B1
:101E00000169C943090716D4C168C943090712D437
:101E10006FF008010161042020772068C069800705
:101E2000204602D0FFF7AEFF04E000F05FF8204646
:101E300000F05DF8257720680169C943C90617D409
:101E4000C168C943C90613D46FF0100101610820AD
:101E500020772068C06910F4407F204602D0FFF749
:101E600091FF04E000F042F8204600F040F82577AA
:101E700020680169C943C90708D1C168C943C907B6
:101E800004D1891E0161204600F032F82068016902
:101E9000C943090609D4C168C943090605D46FF0CE
:101EA000800101612046FFF795FE20680169C94362
:101EB000490609D4C168C943490605D46FF04001F9
:101EC0000161204600F032F820680169C9438906A3
:101ED0000BD4C168C943890607D46FF020010161A2
:101EE0002046BDE87040FFF776BE70BD7047704772
:101EF0000B49884213D10B484168491C4160416835
:101F0000052291FBF2F302FB1311002907D101789E
:101F100081F00101017020210348FEF7CFBE704718
:101F2000980100200000002000080140704770B5B3
:101F3000040004D094F83900002510B106E0012017
:101F400070BD84F83850204600F022F8242084F830
:101F500039002068C16821F40051C160204600F0BA
:101F600059FF2068016921F49041016120684169AD
:101F700021F02A0141612068C16841F40051C1602B
:101F8000E563202084F8390084F83A00002070BD11
:101F900000B585B000210091019102910391006884
:101FA0000F49884219D10F48C16941F40031C1611C
:101FB000C16901F400310491816941F0040181613A
:101FC0008069694600F0040004900C200090022013
:101FD000019003900448FEF781FD05B000BD0000AC
:101FE0000044004000100240000801402DE9F84381
:101FF000044690F839001F4616460D46202850D159
:10200000A5B19EB194F8380001284AD0012084F887
:1020100038004FF00008C4F83C80212084F83900D3
:10202000FEF758FEA6848146E68426E00120BDE83E
:10203000F883E08C401EE084A0684B46B0F5805FDA
:102040004FF000024FF080012046009703D000F0CF
:102050003DFFE8B90DE000F039FFC8B928882168D4
:10206000C0F308004860206908B16D1C05E0AD1C94
:1020700003E0216815F8010B4860E08C0028D8D1F6
:102080004B46002240212046009700F01FFF08B178
:102090000320CCE7202084F8390084F83880002021
:1020A000C5E70220C3E7FEE701684A69D24352054B
:1020B0000FD46FF480624A61002140F8301F202263
:1020C00042738173026942F00402026101730120CC
:1020D0007047002070472DE9F84F0446C06A1E463D
:1020E00092460D4621680A6842F480620A60082818
:1020F00007D0012805D010F5803F02D0206B1128B1
:1021000004D12068016841F4807101604FF001182A
:102110005346002241462046009600F06FF9F0BB7E
:10212000206908F10109B0F5804F0FD00620216821
:1021300000EAD51747F0F00008613346524608F12F
:102140000701204600F08EF948BB03E0E8B240F0FA
:1021500001001BE02168E8B2086133465246494657
:10216000204600F07FF9D0B920684169816900916B
:10217000016841F4807101605346002241462046C7
:10218000009600F03BF950B947F0F1002168086172
:10219000334652464946204600F064F900E001E02B
:1021A000002800D00120BDE8F88F0000F8B50446F3
:1021B000C06A1E460D461746082807D0012805D0DC
:1021C00010F5803F02D0206B122804D120680168EE
:1021D00041F480710160134600224FF00111204646
:1021E000009600F00BF908BB2069B0F5804F0ED0C7
:1021F0000620216800EAD51040F0F000086133465F
:102200003A460B49204600F02DF978B902E005F076
:10221000FE0000E0E8B221680861054933463A460D
:10222000891F204600F01EF9002800D00120F8BDCB
:10223000080001002DE9F84F0446006889460B9D0F
:1022400001689846174641F4806101602068016882
:1022500041F48071016000954FF0011A002251464F
:1022600020460A9B00F0CAF8002853D1216809F0E3
:10227000FE0008610AF1010B2B46594620460A9AD6
:1022800000F0F0F8F0BB20684169806900902A46B0
:1022900020460A9900F064F940B1206C042839D135
:1022A0002068016841F40071016033E0FEB2B8F1CA
:1022B000010F09D02168380A08612A4620460A9988
:1022C00000F04EF90028E8D1206806612A46204631
:1022D0000A9900F045F90028DFD12068016841F42F
:1022E0008071016000950022514620460A9B00F053
:1022F00085F838B9216809F0FF0040F00100086155
:102300002B4600E006E0594620460A9A00F0AAF85B
:10231000002800D00120BDE8F88F00002DE9F84327
:10232000044600680D46DDE90897016898461646A0
:1023300041F4807101604B4600224FF001112046AC
:10234000009700F05BF8E0B9216805F0FE00086135
:102350003B464A461549204600F084F888B9206873
:102360004169806900903A464946204600F0F8F8F5
:1023700050B1206C042804D12068016841F4007138
:1023800001600120BDE8F883F5B2B8F1010F09D072
:102390002168300A08613A464946204600F0E0F8D4
:1023A0000028E6D1206805610020EBE7020001006B
:1023B00070B516460D4604460DE02046FFF774FE44
:1023C00008B1012070BD681C05D0FEF783FC801B9E
:1023D000A84207D835B120684069C0434007ECD413
:1023E000002070BD002044F8300F20216173A073DD
:1023F000216941F0200121612073E2E72DE9F047D6
:102400001E4690460D460446C1F30747DDF820906E
:1024100008E0701C06D0FEF75DFCA0EB0900B0429E
:102420000FD876B12068012F18D0806925EA000006
:102430000004000C14D000214145EAD00020BDE882
:10244000F087002044F8300F20216173A0732169C8
:1024500041F02001216120730120F0E74069E5E7A8
:102460000121E9E72DE9F0479A4691460E460446D8
:1024700000254FF02008C1F3074725E02068406998
:10248000C043400514D42068016841F40071016024
:1024900021686FF480604861256384F83D8084F88A
:1024A0003E50206C40F00400206484F83C501FE053
:1024B000B9F1FF3F08D0FEF70DFCA0EB0A0149453A
:1024C0000CD8B9F1000F09D02068012F13D0806912
:1024D00026EA00000004000C0BD0CFE744F8305F80
:1024E00084F80D80A573206940F0200020612573D9
:1024F0000120BDE8F0874069EAE72DE9F0410025B9
:1025000090460E460446202717E04069C043C006A7
:102510000CD454F8301B6FF01000486144F8105987
:102520006777A577206A2062257717E0FEF7D2FB50
:10253000A0EB0800B04208D83EB120684169C94309
:102540004906E2D40020BDE8F08144F8305F6773AB
:10255000A573206940F02000206125730120F2E777
:1025600070B516460D4604460DE02046FFF79CFD6B
:1025700008B1012070BD681C05D0FEF7ABFB801BC5
:10258000A84207D835B120684069C0430006ECD4A2
:10259000002070BD002044F8300F20216173A0732B
:1025A000216941F0200121612073E2E72DE9FF5FFD
:1025B00096B024AD044695E88301D4E90823089336
:1025C0000692FDF714FF3A464346FDF716FFD4E99D
:1025D0000623FDF76BFE07911290D4E910A3524633
:1025E000384641460993FDF708FFCDE90001D4E9DB
:1025F0000C939B464A46FDF7FAFED4E90E23CDE93B
:102600000B32FDF7F4FED4E90023FDF74FFE3A4606
:102610004346FDF7F2FED4E90A23FDF747FE0546DF
:102620000E46DDE900014A465B46FDF7E3FE8B46B8
:102630000490DDE90001DDE90B32FDF7DBFE0D91D1
:102640000090D4E902013A464346FDF7D6FE5246D1
:10265000099BFDF72BFECDE90E01D4E904232846A2
:102660003146FDF723FE80468A4602460B46284641
:102670003146FDF734FF81460F46424653460D99D9
:102680000098FDF72CFF80468A46DDE91801079B7C
:10269000129AFDF7ACFE0B914A463B461090FDF7AF
:1026A000ACFE079B129AFDF701FEC4E906010791F3
:1026B0001290404651460B9B109AFDF79EFE089BD8
:1026C000069AFDF7F3FDC4E90801049806902A462E
:1026D000334648463946FDF790FE2A463346FDF715
:1026E00089FEC4E90A015B4648463946069AFDF769
:1026F00084FE5B46049AFDF77DFEC4E90C012A4680
:10270000334640465146FDF778FE0D9B009AFDF793
:1027100071FEC4E90E015B4640465146069AFDF73C
:102720006CFEDDE90E23FDF765FEC4E91001079993
:1027300012981AB0BDE8F09F2DE9F04186B08046AE
:10274000012504A8CDE9000564242B467522D0217B
:1027500002944046FEF71AFD9DF81000682803D049
:10276000012006B0BDE8F081002703AE8DF80C70A3
:102770000096CDE9015401236B22D0214046FEF79B
:1027800015FE07208DF80C000096CDE901540123B9
:102790001922D0214046FEF709FE8DF80C700096F4
:1027A000CDE9015401231C22D0214046FEF7FEFD55
:1027B0008DF80C700096CDE9015401231B22D02125
:1027C0004046FEF7F3FD0020CBE700002DE9F04F77
:1027D00089B00C4664230E2204A98DE80E00012363
:1027E0003B22D021FEF7D2FCBDF8100040BA00B267
:1027F0002080BDF8121049BA09B261808946BDF83F
:10280000141049BA09B2A1808846BDF8161049BA19
:102810000FFA81FABDF8181049BA0FB22784BDF833
:102820001A1049BA0EB26684BDF81C1049BA0DB22E
:10283000A584FDF7E8FE6FF00D0B5A46FDF7BEFECE
:10284000C4E902014846FDF7DEFE5A46FDF7B6FE32
:10285000C4E904014046FDF7D6FE0022614BFDF7B6
:102860003EFEC4E906015046FDF7BFFE5E49FDF796
:10287000D3FC5E49FDF778FC20643846FDF7C3FEC3
:102880005B4F00223B46FDF72AFEC4E90A013046B1
:10289000FDF7B9FE00223B46FDF721FEC4E90C011D
:1028A0002846FDF7B0FE00223B46FDF718FEC4E9BE
:1028B0000E01FEF70FFA4F4D2968401AFDF7B4FEDE
:1028C00000224D4BFDF70BFE81468A46FEF702FAC9
:1028D0002860B4F90010B4F90400494300FB00106B
:1028E000FDF791FE01F010FC002205460E4613464E
:1028F000FDF7F2FE10D0B4F90200FDF784FE2A467F
:102900003346FDF7ECFD01F01BF83C4A3C4BFDF76C
:1029100074FD0746884601E00027B846B4F9040074
:10292000FDF771FE0646B4F900000D464042FDF782
:102930006AFE32462B4601F013F9304A304BFDF760
:102940005CFDDFF8C0B005460E4600225B46FDF791
:10295000C3FE06D2D4E9140100222B4BFDF7D4FEAE
:102960000DD30022284B28463146FDF7CDFE0DD26F
:10297000D4E9140100225B46FDF7AEFE06D21D48E5
:102980005030C0E90656C4E914560DE0CDE9029A6C
:10299000D4E90C01CDE9000116482A4633465030EF
:1029A000FFF704FEC4E91401D4E9140121F0004149
:1029B0000022154BFDF7A8FE03D2E16A81F0004129
:1029C000E162CDE9029AD4E90C01CDE900010948A0
:1029D0003A4643460830FFF7E9FDC4E9120109B061
:1029E000BDE8F08F0029CC400000AA43B81E124277
:1029F000006060405000002000408F40F8C1631A22
:102A0000DCA54C40008056C00080564030B585B0F3
:102A1000002424480094019402940394816941F0B5
:102A200010018161816901F010010491816941F017
:102A300020018161816901F020010491816941F0E7
:102A400004018161816901F004010491816941F00F
:102A5000080181618069144D00F008000490002293
:102A600020212846FEF731F9681400900F48CDE97F
:102A7000010469460E48FEF731F82020009001203D
:102A8000CDE901040220039069462846FEF726F8A6
:102A9000002211462820FEF7DBFD2820FEF7CAFDA4
:102AA00005B030BD001002400008014000001110C8
:102AB000001001400D4810B50B4901600C49416000
:102AC00000214FF480428160C0E9031241618161BD
:102AD000C1610162FEF704F9002803D0BDE810408F
:102AE000FDF7C4BF10BD000000540040F0000020FE
:102AF000A08601000D4810B50B4901600C494160EA
:102B000000214FF480428160C0E90312416181617C
:102B1000C1610162FEF7E4F8002803D0BDE810406F
:102B2000FDF7A4BF10BD0000005800404401002084
:102B3000A086010010B586B00024174800940194C7
:102B40000294039404941349059401600915C0E9A3
:102B5000011440F2BF21C0E903148461FFF75DF85E
:102B600008B1FDF783FF4FF48050009069460A4892
:102B7000FFF79DF808B1FDF779FF049404A9064812
:102B80000594FFF729F8002801D0FDF76FFF06B084
:102B900010BD00000008004098010020FEE77047CB
:102BA000AFF300800021084600F018B83EB542F2AD
:102BB00010748DF80400012301AA802106480094B6
:102BC000FEF74EFA012302AA802103480094FEF783
:102BD00041F99DF808003EBD440100201CB50223C8
:102BE0008DF8040042F210708DF80510009001AAD3
:102BF00080210248FEF734FA1CBD00004401002089
:102C00007047704770B5FDF754FD4FF066321B4BAF
:102C1000FDF7F3FBFDF790FD044619486FF00B013B
:102C2000FDF738FB2146FDF7F7FA4FF07E51FDF72F
:102C3000EDFAFDF73EFD0022124BFDF737FB01F0E8
:102C40006BF8FDF71DFD05460020FFF7AFFF0446BA
:102C500000F07F0040F010010020FFF7BFFFE9B255
:102C6000FE20FFF7BBFF21460020FFF7B7FF44F02F
:102C7000A101BDE870400020FFF7B0BF6666EE3FDF
:102C800020BCBE4B0000E03FFEF77CBC30B58FB0EF
:102C900028216846FDF75DFA14210AA8FDF759FAC4
:102CA00002250120049000951020059000244FF487
:102CB0006010CDE9084007956846FEF7E7FD08B1CA
:102CC000FDF7D4FE0F20CDE90A054FF48060CDE971
:102CD0000C4002210AA80E94FEF7ECFC002801D05B
:102CE000FDF7C4FE0FB030BD0D48016841F0010191
:102CF000016041680B4A1140416001680A4A114075
:102D00000160016821F480210160416821F4FE0125
:102D100041604FF41F0181600449C003086070479F
:102D2000001002400000FFF8FFFFF6FE08ED00E093
:102D30000148FFF728B8000098010020F0B50268AC
:102D4000164B174C174D4FF08047984205D0B842AC
:102D500003D0A04201D0A84203D122F070064A68F5
:102D60003243984205D0B84203D0A04201D0A842D5
:102D700003D122F44074CA6822434C6922F08002D5
:102D8000224302608A68C2620A688262984201D164
:102D90000969016301214161F0BD0000002C01407F
:102DA000000400400008004010B5846842EA032295
:102DB00024F47F440A432243826010BD826822F0DB
:102DC00070020A4342F007018160704710B5036A40
:102DD000046A24F001040462846924F0F00444EAE3
:102DE000021423F00A020A438461026210BD10B586
:102DF000036A23F0100303628369046A23F47043B7
:102E000043EA023224F0A00343EA01118261016225
:102E100010BD00002DE9F041044600680169E26838
:102E200021F44051114301612169A068084361699F
:102E300008432168CA6841F20C639A430243CA609E
:102E400020684169A26921F44071114341611E4922
:102E5000206864253226884202D1FEF7D1FC01E0C9
:102E6000FEF7BEFC00EBC00101EB001160686FF0E3
:102E700018078000B1FBF0F2B2FBF5F2B1FBF0F302
:102E80007A4303EB8202B1FBF0F306EB0212B2FBD2
:102E9000F5F2B3FBF5F302F0F00202EB0312B1FB23
:102EA000F0F3B1FBF0F0B0FBF5F0784303EB8000FA
:102EB00006EB0010B0FBF5F0216800F00F001044A5
:102EC0008860BDE8F0810000003801402DE9F04144
:102ED000984617460E460446069D1DE0681C1BD00A
:102EE0002DB1FDF7F7FEA0EB0800A84214D9206829
:102EF000C16821F4D071C1602068416921F00101ED
:102F00004161202084F8390084F83A00002084F8D8
:102F100038000320BDE8F0812068006836EA000030
:102F200004D00020B842D9D00020F3E70120F9E70F
:102F3000FEE700000FB4054B10B503A9044A029840
:102F400000F066F910BC5DF814FB0000F53D0008C8
:102F5000E8000020490050EAC12018BF04204A0DB3
:102F600018BF40F0010040F2FF72B2EB515F08BFA2
:102F700040F00200012808BF052070470907090E2C
:102F8000002804DB00F1E02080F80014704700F016
:102F90000F0000F1E02080F8141D70472DE9F0418A
:102FA0004F1E00EBC7010446D1E9000115461E463D
:102FB00037F006020DD02A463346FDF71EFA7F1E73
:102FC00004EBC703D3E90023FDF770F937F00602DD
:102FD000F1D1022F25D0042F13D0062F18BFBDE842
:102FE000F0812A463346FDF708FAD4E90A23FDF7B3
:102FF0005DF92A463346FDF700FAD4E90823FDF7C8
:1030000055F92A463346FDF7F8F9D4E90623FDF7CA
:103010004DF92A463346FDF7F0F9D4E90423FDF7CC
:1030200045F92A463346FDF7E8F9D4E90223FDF7CE
:103030003DF92A463346FDF7E0F9D4E90023BDE81F
:10304000F041FDF733B90122FDF7B8BAFDF72EB90B
:10305000024A00201107FDF7B1BA000001FDFFFF91
:1030600002E008C8121F08C1002AFAD17047704751
:10307000002001E001C1121F002AFBD170470000AF
:103080000149086070470000EC0000202DE9FF5F57
:1030900082B00021DDE90430020DDDF840B00343C9
:1030A00018D044F61050A2F2FF3242431514119882
:1030B00001281FD0A5EB0B00401C5FEA000A4FF06F
:1030C00000064E4FDFF83891B046504615D5CAF18C
:1030D000000413E0119801244AA3012801D16FEAEA
:1030E0000B010298119AC0E90031C0E9024206B012
:1030F000BDE8F09FCBF10000DFE704460021404A25
:10310000491842EB0450CDE9001012E0E00707D067
:1031100032463B4640464946FDF76FF980468946B0
:1031200032463B4610461946FDF767F906460F46FC
:103130006410002CEAD1DDE90401DDE90023BAF1D5
:10314000000F06DAFDF759F942464B46FDF755F9EF
:1031500005E0FDF7C4F942464B46FDF7C0F90446C9
:103160000E460022284BFDF7CFFA03D84FF0FF3070
:10317000014607E00022254B20463146FDF796F830
:10318000FDF743FC102409E0002C0ADB0A2200238F
:10319000FDF704FB039B30321A55641E50EA01020E
:1031A000F2D1641C039AC4F111031444119A012A48
:1031B00003D0012208430DD10AE0084304D00020C7
:1031C0004FF0110B119072E7A3EB0B056D1E0DE094
:1031D0005B4504DD4FF0000205F1010504E003DA70
:1031E0004FF00002A5F10105002AECD002981199D8
:1031F000C0E90231C0E9004579E700000000144051
:103200000000F03F300000000000F0430000E03F0D
:103210002DE9FF4F95B09B468946064600250FE2F3
:10322000252877D100242746F84A0121059400E09B
:10323000044316F8013F203B01FA03F01042F7D196
:1032400030782A2811D06FF02F033078A0F13002A7
:10325000092A16D8059A44F0020402EB820203EB15
:1032600042021044761C0590EFE759F8042B0592B2
:10327000002A03DA504244F40054059044F002045A
:10328000761C30782E2816D116F8010F44F004046D
:103290002A280DD06FF02F023078A0F13003092BCF
:1032A00009D807EB870302EB4303C718761CF3E743
:1032B00059F8047B761C30786C280FD006DC4C283B
:1032C00017D068280DD06A2814D104E0742810D0D3
:1032D0007A280FD10DE044F400140AE044F480147D
:1032E00001E044F440147278824202D104F5801463
:1032F000761C761C307866280BD013DC582877D0E3
:1033000009DC002875D04528F6D04628F4D0472897
:103310001AD19DE118E0632835D0642879D065285A
:1033200012D195E1702873D008DC6728F1D06928A4
:103330006FD06E280DD06F2806D1B5E073282CD041
:10334000752875D0782874D05A46179990476D1C07
:1033500075E1C4F30250022809D003280DD0D9F832
:10336000001004280DD00D6009F1040967E1D9F8B7
:103370000010EA17C1E90052F6E7D9F800100D80F5
:10338000F2E70D70F0E719F8041B8DF8001000202B
:103390008DF80100EA46012003E059F804AB4FF034
:1033A000FF3061074FF0000102D40DE008F1010188
:1033B0008846B9420FDA8045F8DB1AF80810002970
:1033C000F4D108E008F1010188468142FADB1AF8DD
:1033D00008100029F6D105985B46A0EB08072146A6
:1033E0003846179A00F094FA284400EB080507E0E5
:1033F0004DE029E10DE01AF8010B5A461799904764
:10340000B8F10108F7D25B4621463846179A13E116
:1034100042E00A220092C4F302524FF0000A022A4C
:1034200008D059F804CB032A4FEAEC710AD00DE01A
:1034300029E02AE009F1070121F00702F2E802C1C0
:10344000914609E00FFA8CFC4FEAEC71042A03D193
:103450004FFA8CFC4FEAEC71002907DA0A4600218A
:10346000DCF1000C61EB02012D2202E0220504D503
:103470002B228DF80420012203E0E20701D0202254
:10348000F7E7904659E00A2102E010220DE01021F2
:103490004FF0000A00910BE010224FF0000A44F0B8
:1034A00004040827009203E008224FF0000A00926B
:1034B000C4F30252022A05D059F804CB0021032A92
:1034C00008D009E009F1070121F00702F2E802C182
:1034D000914605E01FFA8CFC042A01D10CF0FF0C88
:1034E0004FF00008220728D5702806D0009B83F0F3
:1034F000100353EA0A0305D00EE040228DF80420A1
:10350000012208E05CEA010206D030228DF8042096
:103510008DF8050002229046009B83F0080353EAD1
:103520000A030AD15CEA010201D1620705D5302203
:103530008DF804204FF001087F1E582804D034A0D5
:1035400003900EA802900DE036A0F9E753466046BE
:10355000009AFDF723F984460398825C0298401E86
:10356000029002705CEA0100F0D1029806A9081AE4
:1035700000F1200A600702D524F4803400E001271E
:10358000574502DDA7EB0A0000E0002000EB0A012E
:10359000009005984144401A0590E00306D45B462C
:1035A0002146179A059800F0B3F90544002706E074
:1035B00001A85A46C05D179990476D1C7F1C47456E
:1035C000F6DBE0030CD55B462146179A059800F020
:1035D0009FF9054404E030205A46179990476D1C26
:1035E0000099481E00900029F5DC08E00298029935
:1035F0005A460078491C0291179990476D1CBAF100
:103600000001AAF1010AF1DC65E1000009280100CE
:103610003031323334353637383961626364656648
:10362000000000003031323334353637383941420A
:10363000434445460000000000F058F90544761C5C
:10364000307800287FF4ECAD19B02846BDE8F08F43
:10365000620700D4062709F1070222F0070CFCE8F4
:103660000223E14603F000485FEA080C02D00FF2A3
:10367000702C0DE05FEA045C02D50FF2682C07E0C5
:103680005FEAC47C02D00FF2602C01E0AFF2700C54
:103690004FF0FF3823F00043CDF850C065280CD020
:1036A00006DC452809D046281DD047283DD13DE0FD
:1036B000662818D067287ED138E00021112F01DB61
:1036C000112000E0781CCDE9000106A90EA8FFF743
:1036D000DDFCDDE90F010E9A03910021009207F154
:1036E000010A04914DE04FF000400097CDE9011030
:1036F00006A90EA8FFF7CAFCDDE90F0203920E9B94
:1037000011990022DDF80CA00093049211B9791CE4
:1037100000EB010AB7EB0A0004D4C0F1FF3007F157
:10372000010A0490AAEB0700019044E0012F00DA9F
:1037300001270021112F01DD112000E03846CDE9DD
:10374000000106A90EA8FFF7A1FCDDE90F010E9A02
:103750000391002104910092BA4621070CD40399E9
:10376000514500DA8A46BAF1010F05DD009AAAF147
:103770000101515C302908D0B84202DA10F1040F7F
:1037800006DA0121CDE9011015E0AAF10101E9E70E
:10379000002805DC049901440491AAEB000102E031
:1037A000411C514500DD8A460499401A401C019095
:1037B0004FF000400290200704D40198504501DBEF
:1037C000CDF8048000208DF84F0002980DF14F07CE
:1037D000B0F1004F25D02B200E9002984FF0020838
:1037E00000280CDA404202902D200E9007E00A21BA
:1037F0000298FCF7BDFF3031029007F8011DB8F1C7
:103800000001A8F10108F2DC02980028EFD1791E2E
:103810000E980870307800F0200040F0450007F85E
:10382000020D12A8C01B00F107081498007800B11F
:10383000012000EB0A01019801EBE0710598414479
:10384000401A401E0590E00306D45B462146179AB5
:10385000059800F05DF805441498007818B15A46B0
:10386000179990476D1CE00324D55B462146179AB3
:10387000059800F04DF805441CE00498002807DB8B
:10388000DDE90301884203DD0098405C179901E0FF
:10389000179930205A469047049805F10105401CBD
:1038A00004900198401E019004D12E205A46179989
:1038B00090476D1CBAF10001AAF1010ADDDC05E0B8
:1038C00017F8010B5A46179990476D1CB8F1000183
:1038D000A8F10108F4DC5B462146179A0598ABE68F
:1038E0002D0000002B000000200000002DE9F04119
:1038F000044600251E461746880404D405E03946D0
:103900002020B0476D1C641EF9D52846BDE8F08123
:103910002DE9F041044600251E469046C80301D516
:10392000302700E02027880404D505E041463846CA
:10393000B0476D1C641EF9D52846BDE8F081000033
:103940002DE9F84F04460D4621F0004000917349DF
:10395000814211DC7249884201DC06D12CB120463B
:103960002946BDE8F84FFFF76EBB6E48002DCCBF6F
:103970006D496E49BDE8F88F6D49814211DD6D4991
:103980008142D8BF4FF0FF366DDD20462946FFF754
:10399000E1FA042808BFFFF75BFB20462946BDE893
:1039A000F88F6549654F25F00045814233DD644954
:1039B000814219DD002632464FF0804320462946D9
:1039C000FCF774FC80468A46012220462946FCF713
:1039D000F5FD00223B46FCF70AFD42465346FCF744
:1039E0007EFD04460D463EE001260022BA463B46D7
:1039F00020462946FCF75AFC80460F4600225346D3
:103A000020462946FCF7F3FC42463B46FCF767FD9F
:103A100004460D4627E04B4981421BDDDFF828A113
:103A200002260022534620462946FCF7E6FC0022E7
:103A30003B46FCF73BFC80460F460022534620469F
:103A40002946FCF7D4FC42463B46FCF748FD0446B9
:103A50000D4608E0032622462B4600203B49FCF792
:103A60003EFD04460D4622462B4610461946FCF7FD
:103A7000C4FC8B46824602460B46FCF7BEFC07465A
:103A80000246334888460B4606217844FFF786FAFB
:103A900052465B46FCF7B1FC82462E488B463A46BE
:103AA000434605217844FFF779FA3A464346FCF746
:103AB000A4FC02460B46002E504659460CDAFCF791
:103AC000F5FB22462B46FCF798FC01B022462B461C
:103AD000BDE8F04FFCF78EBCFCF7E8FB22462B4616
:103AE000FCF78BFC1C4A7A4402EBC603D3E90023A3
:103AF000FCF77DFC22462B46FCF779FC174A7A44FA
:103B000002EBC603D3E90023FCF774FC009A002AF9
:103B1000B8BF81F00041BDE8F88F000000001044FC
:103B20000000F07F182D4454FB21F93FFB21F9BF21
:103B30000000DC3F0000203E0000F33F0000F03FAB
:103B40000000E63F008003400000F83F0000F0BFA7
:103B50004A07000008070000A60600006E060000E5
:103B60002DE9F04D9446CCF1000423F000464CEAD8
:103B70000404524F46EAD4749A46884621F0004223
:103B8000BC4206D8454240EA050442EAD474BC422D
:103B900004D9BDE8F04D6246FFF758BAAAF1405586
:103BA000A5F17F6555EA0C040BD0022404EAAA743F
:103BB000434DDFF810E144EAD87452EA000B04D018
:103BC0000CE0BDE8F04DFFF7BBBE002C14BF012C8C
:103BD000BDE8F08D022C30D0032C32D056EA0C0B0D
:103BE0000AD0BE4220D1BA4209D126F0804622F046
:103BF00080423346114617E000291ADB25E0DFF842
:103C0000C8B0FB44002C04BFDBE90001BDE8F08D27
:103C1000012C02BFDBE9000181F00041BDE8F08D1D
:103C2000022C0AD0032C0CD0BA4212D1B8F1000FEA
:103C30000BDA23482549BDE8F08D28462449BDE824
:103C4000F08D28467146BDE8F08D1D482149BDE83C
:103C5000F08D921B12153C2AC4BF19481D490EDC79
:103C6000BAF1000FBEBF12F13C0F0020014606DB87
:103C70006246FCF734FC21F00041FFF761FE002CA6
:103C800008BFBDE8F08D012C04BF81F00041BDE804
:103C9000F08D114A114B022C07D0FCF7A8FB2A46E5
:103CA000BDE8F04D0A4BFCF7A2BBFCF7A0FB2A468F
:103CB000BDE8F04D064BFCF79DBB00000000F07F17
:103CC000182D4454FB2109C002060000FB21F9BF56
:103CD000FB210940FB21F93F075C143326A6A13CD8
:103CE00010B5FCF78BFC0849FCF796FAFCF7E1FCF1
:103CF0000022064BFCF7DAFA054A064BFCF77DFB7F
:103D0000FCF7BEFC80B210BD0000B4420000E03FF2
:103D10009A999999999969402DE9F041C1F30A520C
:103D2000A2F2FF362F4A304B0D460446142E2FDAEE
:103D3000002E12DAFCF7BAFA00221346FCF7E4FC74
:103D40004CD2002DA4BF0024254647DA25F00040C0
:103D5000204318BF254D41D018E0DFF894C02CFA5D
:103D600006F705EA070C5CEA040C08BFBDE8F08121
:103D7000FCF79CFA00221346FCF7C6FC2ED2002D5D
:103D800003DA4FF48010F0400544BD43002425E0E1
:103D9000332EC8BFBDE8F081A6F1140C4FF0FF37F9
:103DA00027FA0CF73C4208BFBDE8F081FCF722FB84
:103DB00000221346FCF7A8FC10D2002D0DDA142EB9
:103DC00008BF6D1C09D0C6F13400012101FA00F0D2
:103DD0002044A04238BF6D1C0446BC4329462046FF
:103DE000BDE8F0819C7500883CE4377E0000F0BFA0
:103DF000FFFF0F0013B54FF6FF730122694602481B
:103E0000FEF7F4F800981CBDD80100201CB5FDF7A2
:103E1000C1FBFEF73BFFFEF7F9FD674865490C2241
:103E200001604FF4E131416000218160C160C0E96F
:103E300004128161C161FEF77AF808B1FCF716FE41
:103E4000FEF738FEFEF756FEFEF774FE5BA0FFF7A6
:103E500071F861A0FFF76EF85748E838FEF76CFC80
:103E60000128F9D054484038FDF710FF63A0FFF750
:103E700061F8FEF795FE6B48FEF7C4FE0020FFF7E1
:103E80002FFF0146022000F01DF90020FFF728FF58
:103E90000146002000F016F9C820FCF7FFFD464D52
:103EA000614C403520780028FCD043494031A1F5D1
:103EB0009470FEF78BFC607820B3D5E91201D4E949
:103EC0000823FCF794FAC4E90C0106460F46D5E92D
:103ED0001401D4E90A23FCF78AFAC4E90E01A27896
:103EE000002A42D0FCF7ADFB804630463946FCF74D
:103EF000A8FB014642464DA0FFF71CF8A068C82861
:103F00003BD04FE0D5E91423D4E9060191461F4682
:103F1000FCF7CCF9C4E90601D5E91223D4E9040180
:103F200090461E46FCF7C2F9C4E90401A07858B1D6
:103F300048463946FCF785FB074640463146FCF7C4
:103F400080FB01463A46D6E73B48A168FEF7F2FF00
:103F5000D5E91401CDE90001D5E9122337A0FEF718
:103F6000E9FF40A0FEF7E6FFC8E7CDE900013246D1
:103F70003B4648A0FEF7DEFFC0E7607890B901201D
:103F800060704F4ED4E9040100223346FCF7A7FAD3
:103F9000C4E90801D4E9060100223346FCF79FFA80
:103FA000C4E90A013AA0FEF7C5FFA068401CA06062
:103FB00078E7000000440040D80100205B535953CB
:103FC00054454D5D2053797374656D20737461722F
:103FD00074732E2E2E0D0A005B53595354454D5DBC
:103FE00020436F6E6E656374696E6720746F204D39
:103FF0005055363035302E2E2E0D0A005B53595356
:1040000054454D5D20436F6E6E656374696F6E201D
:1040100065737461626C69736865642E2E2E0D0A77
:104020000000000000004842000000202425642019
:1040300025643B0D0A000000104200085B4C4F470E
:104040005D20583A20252E326620646567726565CA
:10405000207C20593A20252E3266206465677265DF
:10406000650D0A005B53595354454D5D506C6561B5
:10407000736520646F206E6F74206D6F7665207994
:104080006F7572206779726F2073656E736F72211E
:104090000D0A00005B4C4F475D20536D6F6F7468D5
:1040A000656420583A20252E3266207C20536D6F9F
:1040B0006F7468656420593A20252E32660D0A0017
:1040C0000000694070B5044606200D4600EB8400F0
:1040D000C0B20021FEF782FD072000EB8400C0B2D1
:1040E0000021FEF77BFD082000EB8400E9B2C0B29E
:1040F000FEF774FD092000EB8400C5F30721BDE83D
:104100007040C0B2FEF76ABD2DE9F04106460F4689
:10411000FCF72AFC041E0D4618BF0120284320F09E
:104120000040C0F17F6000F1E040C00F0ED0301CB5
:1041300018BF0120384320F00040C0F17F6000F13B
:10414000E040C00F04BF0120FEF79AFF2046294639
:10415000BDE8F0810000000000000000010203043F
:104160000607080900000000010203040000000027
:104170004FBB610567ACDD3F182D4454FB21E93F7F
:104180009BF681D20B73EF3F182D4454FB21F93F6E
:10419000E2652F227F2B7A3C075C143326A6813CF4
:1041A000BDCBF07A8807703C075C143326A6913C9F
:1041B000C4EB98999999C9BF711623FEC671BCBF0B
:1041C0006D9A74AFF2B0B3BF9AFDDE522DDEADBF73
:1041D0002F6C6A2C44B4A2BF0D5555555555D53F8B
:1041E000FF8300922449C23F6E204CC5CD45B73FA6
:1041F000513DD0A0660DB13FEB0D76244B7BA93F1E
:1042000011DA22E33AAD903F000000000000000008
:104210005B4C4F475D20436F756E7465723A256441
:10422000207C204B616C6D616E2046696C746572F8
:104230003A20456E61626C6564207C20417665722F
:104240006167652046696C7465723A2050656E64DA
:10425000696E670D0A000000784200080000002027
:10426000F00000006030000868430008F000002003
:104270008005000070300008000001000000000010
:10428000000000000000000000000000000000002E
:10429000000000000000000000000000000000001E
:1042A000000000000000000000000000000000000E
:1042B00000000000000000000100000010000000ED
:1042C000000000000024F4000000000000000000D6
:1042D000000000E04D62503F000000C07493683F52
:1042E000000000E051B89E3F000000000000000008
:1042F00000000000000000000000000000000000BE
:1043000000000000000000000000000000000000AD
:104310000000000000000000000000E04D62503F7F
:10432000000000C07493683F000000E051B89E3F59
:10433000000000000000000000000000000000007D
:10434000000000000000000000000000000000006D
:10435000000000000000000000000000000000005D
:08436000000000000000000055
:04000005080000ED02
:00000001FF
