:020000040800F2
:1000000088060020010100081F2C0008DB200008E2
:100010001D2C0008890A00080530000800000000B7
:10002000000000000000000000000000D72C0008C5
:100030008B0A000800000000812C00085D2D0008DC
:100040001B0100081B0100081B0100081B01000820
:100050001B0100081B0100081B0100081B01000810
:100060001B0100081B0100081B0100081B01000800
:100070001B0100081B0100081B0100081B010008F0
:100080001B0100081B0100081B0100081B010008E0
:100090001B0100081B0100081B0100081B010008D0
:1000A0001B0100081B0100081B0100081B010008C0
:1000B0001B0100081B010008052E00081B01000899
:1000C0001B0100081B0100081B0100081B010008A0
:1000D0001B0100081B0100081B0100081B01000890
:1000E0008D0A00081B0100081B010008DFF80CD076
:1000F00000F0B8FC00480047E13E000888060020F8
:100100000648804706480047FEE7FEE7FEE7FEE7B1
:10011000FEE7FEE7FEE7FEE7FEE7FEE7BD2D00088F
:10012000ED000008202A04DB203A21FA02F0002129
:10013000704721FA02F3D040C2F1200291400843F7
:1001400019467047D2B201E000F8012B491EFBD2DC
:1001500070470022F6E710B513460A4604461946D2
:10016000FFF7F0FF204610BDF0B480EA0102D40F83
:100170004200B2EB410F02D20246084611464A0045
:1001800042D0C30DDDB2C1F3C752AD1A202D35DA0E
:10019000C1F3160141F4000204B15242C5F1200638
:1001A00002FA06F12A411044B3EBD05F23D0C4B168
:1001B000012DA0EBC35009DCF0BC4FF0004202EA75
:1001C000C352DBB200F5000000F057BB400000F165
:1001D000807000EBC350A0F1807040EAD1704900FC
:1001E00009E0490841EAC071A0EBC35000F50000E6
:1001F000400800EBC350F0BC00F036BB6142012266
:1002000002EB4101001BF6E7F0BC704781F00041B2
:10021000AAE780F00040A7E730B480EA010202F0CC
:10022000004530F0004221F0004013D090B1C30DE2
:10023000D40DC2F31601C0F31600E41A41F4000114
:1002400040F400027D34914201D3641C00E0490077
:10025000002C02DA30BC002070474FF4000000236D
:10026000914201D3891A034340084FEA4101F7D173
:1002700051B1914202D14FF0004105E002D24FF05E
:10028000010101E06FF0010103EBC450284430BCD0
:1002900000F0EABA420005D0C0F3C7525242914280
:1002A00001DC0020704700EBC15070472DE9FE4F84
:1002B000804681EA0300C00F0C46009021F0004107
:1002C00023F00045B8EB0200A94105D24046214683
:1002D00090461C460B46024623F00040104347D090
:1002E000270DC7F30A00C3F30A510290401A019088
:1002F00040286BDAC3F3130040F4801B0098924649
:1003000020B10023D2EB030A63EB0B0B0198594693
:10031000C0F14002504600F086FA06460D465046AF
:100320005946019A00F08EFA10EB08006141002452
:1003300087EA115284EAE7731A4340D0009A62B305
:10034000019A012A4FEA075215DC001B61EB0201FA
:100350004FF0004202EA0752CDE90042001C41F58D
:10036000801132462B4600F0C5FA03B0BDE8F08F8D
:1003700040462146F9E7001B61EB0201001C41F5F4
:10038000801300185B412018A2F5001747EB03010A
:1003900040EAD570B6196D4111E06D084FEA360696
:1003A00045EAC0754FEA0752001B61EB0201001CD1
:1003B00041F5801149084FEA300000195141324699
:1003C0002B4603B0BDE8F04F00F085BA009801223B
:1003D00040000023D0EB020263EBE073009821465B
:1003E0004FEAE074B8EB000061EB0401E9E783F049
:1003F00000435BE781F0004158E72DE9FE4F81EAB9
:10040000030404F0004421F0004100944FF0000B7D
:1004100023F0004350EA01045ED052EA03045BD0AB
:10042000C3F30A54C1F30A552C44A4F2F3340194E3
:10043000A0FB0254C1F3130141F48011C3F3130371
:1004400043F4801301FB024400FB034E840A970A25
:1004500044EA815447EA8357A4FB076802958D0A52
:1004600005FB07854FEA932C04FB0C542705029DDE
:100470004FEA065847EA1637B5EB08056EEB070C4E
:10048000870E920E47EA811742EA8312A7FB020108
:10049000B6EB0B0164EB00042B0D43EA0C335E1842
:1004A00044EB1C50DA465146E7FB0201C5F3130446
:1004B0004FEA0B3343EA14534FEA0432019C43EAF8
:1004C0000603A4F10C040294009CCDE900B400F0F2
:1004D00011FA03B0BDE8F08F00200146F9E72DE9DD
:1004E000F04D81EA030404F0004B21F0004514466E
:1004F0004FF0000A23F0004150EA050220D054EAF0
:1005000001021DD0C5F30A570246C5F31303C1F318
:100510001300C1F30A5640F4801543F48013A7EB8F
:100520000608101BD64608F2FD3873EB050002D30F
:1005300008F1010801E092185B41B8F1000F03DAFD
:1005400000200146BDE8F08D00204FF480110646E2
:1005500084460EE0171B73EB050705D3121B63EBF4
:10056000050306434CEA010C49084FEA3000921893
:100570005B4150EA0107EDD152EA030012D082EA52
:10058000040083EA0501084305D0101BAB4106D2E5
:100590000122002306E000224FF0004302E06FF04A
:1005A000010253101AEB06004CEB085110EB0A0045
:1005B00041EB0B01BDE8F04D00F08DB970B521F0B5
:1005C000004303430CD0C1F30A550024D5EB0405C6
:1005D00064EB0403D617AD1AB34102DB00200146D9
:1005E00070BD201841EB025170BDC10F80EAE07070
:1005F0000844CA079623002100F03FB99623002241
:10060000114600F03AB90EB5C10F80EAE070084417
:10061000CA07002140F233438DE80E000A460B461C
:1006200000F068F903B000BD0EB540F2334102910D
:100630000021CDE900110A460B4600F05BF903B03A
:1006400000BD70B5C1F30A5201F000450024C1F3AA
:10065000130140F2FF3341F480119A4201DA002085
:1006600070BD40F233439A42A2F2334203DC52425D
:10067000FFF758FD00E090402C43F1D0404270BDA0
:10068000C1F30A5210B5C1F3130140F2FF3341F434
:1006900080119A4201DA002010BD40F233439A42A1
:1006A000A2F2334203DC5242FFF73CFD10BD904002
:1006B00010BD00F0004230F000400AD0C10D01F53D
:1006C0006071C0F3160042EA0151C20840071143AD
:1006D000704700200146704730B5041E71F10004D8
:1006E00004DB4FF00044404264EB0101141E73F13F
:1006F000000405DB1C464FF00043524263EB040349
:100700008B4208BF824230BD30B5041E71F1000437
:1007100004DB4FF00044404264EB0101141E73F10E
:10072000000405DB1C464FF00043524263EB040318
:10073000994208BF904230BD01F0004330B421F02F
:10074000004150EA010206D00A0DA2F56072C1F321
:100750001301002A02DC30BC00207047440F44EA39
:10076000C104C100E01830BC00EBC25000F07CB8FE
:10077000002801DBC0F10040002901DBC1F100418C
:1007800081427047002801DBC0F10040002901DBF5
:10079000C1F100418842704730B50B460146002048
:1007A0002022012409E021FA02F59D4205D303FA33
:1007B00002F5491B04FA02F52844151EA2F10102B4
:1007C000F1DC30BD2DE9F05F0546002092469B46E6
:1007D00088460646814640241BE028464146474657
:1007E0002246FFF79FFC53465A46C01A914110D348
:1007F00011461846224600F016F82D1A67EB01083C
:100800004F4622460120002100F00DF817EB0009A9
:100810004E41201EA4F10104DFDC484631462A4641
:100820004346BDE8F09F202A04DB203A00FA02F19B
:10083000002070479140C2F1200320FA03F31943CE
:1008400090407047202A06DBCB17203A41FA02F08D
:1008500043EAE07306E041FA02F3D040C2F120021D
:1008600091400843194670470029A8BF7047401CB3
:10087000490008BF20F00100704710B4B0FA80FCB6
:1008800000FA0CF050EA010404BF10BC704749B1F3
:10089000CCF1200421FA04F411FA0CF118BF012163
:1008A00021430843A3EB0C01CB1D4FEA00614FEA43
:1008B000102042BF002010BC704700EBC350104412
:1008C0000029A4BF10BC7047401C490008BF20F09D
:1008D000010010BC704710B5141E73F1000408DA53
:1008E000401C41F1000192185B411A4301D120F0F4
:1008F000010010BD2DE9F04D92469B4611B1B1FAB1
:1009000081F202E0B0FA80F220329046FFF78BFFCE
:1009100004460F4640EA0A0041EA0B0153465A4694
:10092000084313D0114653EA010019D0C8F1400220
:100930005046FFF7F7FB05460E46504659464246DD
:10094000FFF771FF084305D0012004E02046394637
:10095000BDE8F08D0020054346EAE0762C4337439E
:100960000A986305E40AA0EB08000022FD0A44EAA5
:1009700047540A3002D500200146E9E70105101965
:100980006941DDE9084500196941BDE8F04DA2E77C
:100990002DE9F04D00231A461B1A8A4103DB002083
:1009A0000146BDE8F08DC1F30A52C1F3130141F4D1
:1009B00080154FF0000BD10702D100186D41521E77
:1009C0000027044640F2FF11384601EB620A3E461A
:1009D0008046024600204FF48011FFF7A3FBC219A6
:1009E0007141BB1846EB0100B4EB030C75EB000C36
:1009F00004D3E41A65EB000517460E46241908F1E6
:100A000001006D4180463428E3DDF91946EB06000C
:100A1000091BA84103D24FF0FF32134601E0002228
:100A200013461BEB070046EB0A51BDE8F04DFFF7FC
:100A300052BFC1F30A52C1F3130140F2FF3341F434
:100A400080119A4202DA00200146704740F2334397
:100A50009A42A2F2334202DC5242FFF763BBFFF735
:100A6000E2BE0000064C074D06E0E06840F00103DE
:100A700094E8070098471034AC42F6D3FFF73AFBEE
:100A8000F848000818490008FEE770474FF4005086
:100A900000F032B801A002F0B7BA000046617461FC
:100AA0006C204572726F72202D3E20506C65617310
:100AB0006520636F6E746163742056696E63656E42
:100AC00074206F72204A61736F6E0D0A000000007F
:100AD00070B5044600F018F90546601C02D00448C1
:100AE0000078044400F010F9401BA042FAD370BD16
:100AF0005800002070470000044910B50A680242FF
:100B000002D00860FFF7F6FF10BD0000140401409A
:100B10002DE9F84FDFF8B891002409F1040A0AF131
:100B2000040B23460F270BF1040EC9E00125A54055
:100B30002A40AA427DD1674ED1F804C0ACEB06082A
:100B4000B44532D014DCBCF1030F3AD009DCBCF15F
:100B5000000F2AD0BCF1010F1CD0BCF1020F31D123
:100B60001DE0BCF1110F17D0BCF1120F2AD119E012
:100B7000B8F5881F19D006DCB8F5803F15D0B8F558
:100B8000801F1FD111E0B8F5001F0ED0B8F5041F6B
:100B900018D10AE0CB6815E0CB681B1D12E0CB68CA
:100BA00008330FE0CB680C330CE08B682BB1012BC2
:100BB0004FF0080303D0456104E0042302E005611F
:100BC00000E00023FF2A01D8064601E000F10406F8
:100BD0004FEA840501D9A5F12005D6F8008007FA6F
:100BE00005FC28EA0C0803FA05F548EA0508C6F8EA
:100BF00000804D68ED0062D5374DAE6946F00106C4
:100C0000AE61AD6924F0030605F001050095334D92
:100C100006EB050CDCF80850A607360F07FA06F8B5
:100C200025EA0805DFF8B880404503D14FF00008F9
:100C300017E044E0DFF8AC80404502D14FF00108F6
:100C40000FE0DFF8A480404502D14FF0020808E031
:100C5000DFF89880404502D14FF0030801E04FF0E3
:100C6000040808FA06F848EA0508CCF808804D6838
:100C7000D9F80060ED034D4601D5164300E09643D8
:100C80002E604D68DAF80060AD03554601D5164375
:100C900000E096432E604D68DBF80060ED025D4693
:100CA00001D5164300E096432E604D68DEF80060E3
:100CB000AD02754601D5164300E096432E60641CD4
:100CC0000D682A46E5407FF431AFBDE8F88F00009B
:100CD000000401400000111000100240000001401B
:100CE00000080140000C01400010014000140140C8
:100CF000C2680A4201D041617047016170470AB180
:100D0000016170470904FBE70148806870470000F3
:100D10005800002070B504001BD094F83D00002559
:100D200020B984F83C50204600F0F2FB242084F8DF
:100D30003D002068016821F00101016000F06AFDBA
:100D40004D4A6168914201D84C4900E04C498842C3
:100D500001D2012070BD4B492368B0FBF1F15E6800
:100D600026F03F060E435E606368934206D94FF457
:100D7000967359434FF47A73B1FBF3F12368491C1E
:100D80001E6A26F03F06314319626168914210D80D
:100D90004900401EB0FBF1F2521CC2F30B02042AC0
:100DA00001D2042022E0B0FBF1F0401CC0F30B00A4
:100DB0001CE0A368F3B301EBC10202EB0116421E73
:100DC000B2FBF6F2521C42F48042120549D093B3B2
:100DD00001EBC10202EB0111401EB0FBF1F0401C1F
:100DE000C0F30B0040F4804040F400402168CA6921
:100DF0004CF6FF739A431043C861D4E907010843D6
:100E000021680A6822F0C00210430860D4E9030197
:100E100001432068826848F2FF339A43114381609E
:100E2000D4E9050108432168CA6822F0FF02104393
:100E3000C86001E00EE016E02068016841F00101A1
:100E400001602564202084F83D00256384F83E502D
:100E5000002070BD01EB4106421EB2FBF6F2521CAF
:100E6000B3E70120C2E701EB4101401EB0FBF1F006
:100E7000401CC0F30B00B7E7A086010080841E0071
:100E800000093D0040420F002DE9F84F1F469046F3
:100E90008A460446DDF82890FFF736FF054694F8A9
:100EA0003D00202879D11923012277492046009559
:100EB00001F0BEFA0028F5D194F83C0001286CD06E
:100EC000012084F83C0020680168C90703D101684B
:100ED00041F0010101602068016821F400610160B6
:100EE000222084F83D00102084F83E00002626646D
:100EF000C4F824806785608D20856448E0622B46B5
:100F00004A465146204601F000F900287ED1208D46
:100F10005F4F68B1012814D00228206801681ED0F4
:100F200041F48061016020684169806900909DE022
:100F30002068416981690091016841F40071016094
:100F400094E02068016821F48061016072B6206835
:100F5000416981690091016841F400710AE041F43E
:100F60000061016072B62068416981690091016881
:100F700021F48061016062B678E0032850D801282E
:100F80000CD002284B464FF000023946204600950F
:100F90000FD001F04DFAC8BB10E073E02A46494675
:100FA000204601F0C4FA88BB20680069616A0870B5
:100FB00053E001F03DFA48BB72B61AE020680168C0
:100FC00021F48061016072B620680069616A08706E
:100FD000606A401C6062208D401E2085608D401E2E
:100FE00060854B46002239462046009501F020FAE4
:100FF00060B92068016841F40071016020680069EF
:10100000616A0870606A401C606200E00EE0218D39
:10101000491E2185618D491E618562B621681AE0ED
:101020002A464946204601F082FA10B10120BDE867
:10103000F88F20680069616A0870606A401C60620D
:10104000218D491E2185618D491E618521684A696E
:10105000D24352070AD409690170606A401C606279
:10106000208D401E2085608D401E6085208D0028CB
:1010700083D1202084F83D0084F83E6084F83C60F1
:101080000020D4E70220D2E7020010000000FFFF9A
:10109000040001002DE9F84F1F4690468A46044699
:1010A000DDF82890FFF730FE054694F83D00202833
:1010B0007FD11923012240492046009501F0B8F95B
:1010C000002876D194F83C00012872D0012084F8E1
:1010D0003C0020680168C90703D1016841F00101A3
:1010E00001602068016821F400610160212084F81A
:1010F0003D00102084F83E0000262664C4F82480B9
:101100006785608D20852D48E0622B464A46514612
:10111000204601F065F890B9206841698069009027
:1011200036E02A464946204601F034FA50B1206C98
:10113000042804D12068016841F400710160012095
:10114000BDE8F88F606A216800780861606A401C19
:101150006062618D491E6185218D491E89B221859C
:1011600022685369DB435B070BD451B100781061EF
:10117000606A401C6062608D401E6085208D401E4C
:1011800020852A464946204601F02CF90028CED178
:10119000208D0028C5D154F83D0B016841F4007141
:1011A0000160202004F81E09E67766770020C7E773
:1011B000FFE70220C4E70000020010000000FFFF6C
:1011C0002DE9FF4F83B09A46DDE911979346044617
:1011D000DDF84080FFF798FD054694F83D00202893
:1011E0006FD1192301227B492046009501F020F997
:1011F0000028F5D194F83C00012862D0012084F841
:101200003C0020680168C90703D1016841F0010171
:1012100001602168086820F400600860222084F8DA
:101220003D00402084F83E0000262664C4F8248057
:10123000A4F82A90608D20856748E062CDE90075AA
:1012400053465A462046049901F00EF800287DD1F5
:10125000208DDFF8888168B1012814D0022820D0C1
:101260002068016841F480610160206841698069FB
:101270000090A0E02068416981690091016841F413
:101280000071016097E02068016821F480610160CD
:1012900072B62068416981690091016841F400716A
:1012A0000CE02168086840F40060086072B62068AD
:1012B000416981690091016821F48061016062B631
:1012C00079E084E003284FD801280BD002283B4660
:1012D0004FF000024146204600950ED001F0A8F8DC
:1012E000A0BB0FE02A463946204601F020F968BB32
:1012F00020680069616A087054E001F099F828BB21
:1013000072B61AE02068016821F48061016072B64B
:1013100020680069616A0870606A401C6062208D04
:10132000401E2085608D401E60853B460022414660
:101330002046009501F07CF840B92068016841F42E
:101340000071016020680069616A00E012E00870C5
:10135000606A401C6062218D491E2185618D491E95
:10136000618562B621681BE02A463946204601F0B5
:10137000DEF818B1012007B0BDE8F08F20680069E1
:10138000616A0870606A401C6062218D491E218577
:10139000618D491E618521684A69D24352070AD48A
:1013A00009690170606A401C6062208D401E2085C2
:1013B000608D401E6085208D002883D1202084F818
:1013C0003D0084F83E6084F83C600020D3E70220B2
:1013D000D1E70000020010000000FFFF0400010040
:1013E0002DE9FF4F83B09A46DDE9119793460446F5
:1013F000DDF84080FFF788FC054694F83D00202882
:101400007FD11923012240492046009501F010F8B0
:10141000002876D194F83C00012872D0012084F88D
:101420003C0020680168C90703D1016841F001014F
:1014300001602068016821F400610160212084F8C6
:101440003D00402084F83E0000262664C4F8248035
:10145000A4F82A90608D20852C48E062CDE90075C3
:1014600053465A462046049900F072FF70B930E0A6
:101470002A463946204601F08DF858B1206C0428E0
:1014800004D12068016841F400710160012007B0B7
:10149000BDE8F08F606A216800780861606A401CCE
:1014A0006062218D491E89B22185628D521E62853E
:1014B00022685369DB435B070BD469B10078106184
:1014C000606A401C6062208D401E2085608D401E39
:1014D0006085208D0028CBD12A463946204600F071
:1014E00081FF0028CAD154F83D0B016841F4007116
:1014F0000160202004F81E09E67766770020C6E721
:10150000FFE70220C3E70000020010000000FFFF19
:1015100030B585B000210091019102910391214DD8
:101520000368214C122103222048AB421DD1A3693C
:1015300043F00803A361A369039203F00803049333
:101540001302CDE900316946FFF7E2FA1848416815
:1015500041F0E06141F002014160E06940F40010B7
:10156000E061E06900F4001019E0124DAB4217D1C0
:10157000A36943F00803A361A369039203F008037E
:1015800004934FF44063CDE900316946FFF7C0FA98
:10159000E06940F48000E061E06900F480000490BC
:1015A00005B030BD0054004000100240000C014066
:1015B0000000014000580040024881680278114450
:1015C0008160704758000020074810B5016841F05D
:1015D00010010160032000F075F8002000F006F80B
:1015E00000F024F8002010BD0020024070B50D4D21
:1015F00004464FF47A712878B1FBF0F00A49096883
:10160000B1FBF0F000F0ECFA48B9102C07D2002240
:101610002146501E00F036F800206C6070BD01209D
:1016200070BD000058000020640000200C4808B580
:10163000816941F001018161816901F0010100913D
:10164000C16941F08051C161C06900F080500090D3
:101650000448416821F0E06141F00071416008BD3B
:101660000010024000000140002809DB00F01F02CA
:10167000012191404009800000F1E020C0F80011F4
:1016800070470000F0B40E4B1B680C46C3F30223F6
:10169000C3F10705042D00D90425191D072901D21E
:1016A000002300E0DB1E012606FA05F1491E214059
:1016B00099409E40761E16403143F0BC01F0C8BCF4
:1016C0000CED00E0064900F0070208684FF6FF0342
:1016D000184040EA0220034A1043086070470000A7
:1016E0000CED00E00000FA052DE9F0470F4605007B
:1016F00061D0434E306800F00700B84209D230682C
:1017000020F0070038433060306800F00700B8422E
:1017100051D128683B4C810712D5400703D560683A
:1017200040F4E06060602878000703D5606840F40A
:10173000605060606068A96820F0F0000843606055
:101740002878C00728D06868012810D021680228AE
:1017500010D0890700292EDA616821F003010143C6
:101760006160FFF7D1FA804641F288390DE02168C7
:101770008903EFE78901EDE7FFF7C6FAA0EB08015F
:10178000494502D90320BDE8F0876068696800F028
:101790000C00B0EB810FEFD1306800F00700B842C9
:1017A0000BD9306820F0070038433060306800F013
:1017B0000700B84201D00120E5E72878400705D5A9
:1017C0006068E96820F4E0600843606028780007FA
:1017D00006D56068296920F4605040EAC100606065
:1017E00000F038F86168084AC1F30311515CC84041
:1017F0000649086006480068FFF7F8FE0020C2E7C7
:101800000020024000100240F4470008640000205D
:101810005C0000200448054900684968044AC1F397
:101820000221515CC8407047640000200010024053
:10183000044800080448054900684968044AC1F39F
:10184000C221515CC8407047640000200010024073
:101850000448000812A185B00FC98DE80F0014A03C
:10186000144A006804905168134801F00C03042BDB
:1018700010D0082B0ED1C1F38343C9031DF8030018
:101880000AD5516804AAC1F34041515C0A4A504349
:10189000B0FBF1F005B0704708494843FAE7000093
:1018A00002030405060708090A0B0C0D0E0F1010A1
:1018B000010200000010024000127A0000093D0001
:1018C0002DE9F84F040070D02078C04DC00749D0F2
:1018D0006868C0F38100012807D06868C0F3810000
:1018E000022809D16868C00306D52868800339D565
:1018F00060680028E7D035E06068B0F5803F0BD025
:1019000010B1B0F5A02F11D0286820F480302860E5
:10191000286820F4802002E0286840F480302860A5
:10192000606890B1FFF7F0F906460AE0286840F4D5
:1019300080202860F0E700BFFFF7E6F9801B6428ED
:1019400073D828688003F7D50CE0FFF7DDF9064669
:1019500005E000BFFFF7D8F9801B6428F0D828689D
:101960008003F7D420789A4E80074FF001094FF09A
:10197000000839D5686810F00C0F07D06868C0F30C
:101980008100022809D16868C00306D4286880074E
:1019900014D52069012808D110E02069B0B1C6F83B
:1019A0000090FFF7B1F9074605E00AE1FFF7ACF94F
:1019B000C01B0228C4D828688007F7D52868616949
:1019C00020F0F80040EAC10028600DE0C6F8008071
:1019D000FFF79AF9074604E0FFF796F9C01B0228C3
:1019E00023D828688007F7D4207800072CD57948B9
:1019F000A169D9B1C0F80090FFF786F9074604E065
:101A0000FFF782F9C01B02280FD8686A8007F7D554
:101A100071484FF4FA510068B0FBF1F0009000BF3C
:101A20000098411E0091FAD20EE080E0C0F80080DC
:101A3000FFF76AF9074604E0FFF766F9C01B0228C2
:101A400075D8686A8007F7D42078400760D5E869C0
:101A50000027C00008D4E86940F08050E861E869D8
:101A6000012700F0805000905C480168C90513D43C
:101A70000168834641F480710160FFF745F98246B1
:101A800006E000BFFFF740F9A0EB0A0064284ED83B
:101A9000DBF80000C005F5D5E06801280AD008B1E0
:101AA000052813D0286A20F001002862286A20F057
:101AB000040002E0286A40F001002862E06841F278
:101AC000883B98B1FFF720F982460BE0286A40F086
:101AD00004002862EEE700BFFFF716F9A0EB0A0149
:101AE00059455AD8286A8007F6D50CE0FFF70CF95B
:101AF000824605E0FFF708F9A0EB0A0159454CD8EA
:101B0000286A8007F6D41FB1E86920F08050E861A8
:101B1000E06988B36968C1F38101022944D00228D1
:101B2000C6F8608004D0FFF7EFF8044638E034E0F0
:101B3000FFF7EAF8074604E0FFF7E6F8C01B0228C3
:101B40002BD828688001F7D4206AB0F5803F05D1F2
:101B50006868A16820F4003008436860D4E908018F
:101B60000843696821F4741108436860C6F86090FE
:101B7000FFF7CAF8044606E025E000BFFFF7C4F807
:101B8000001B022809D828688001F7D51BE000BF98
:101B9000FFF7BAF8001B022802D90320BDE8F88F2E
:101BA00028688001F4D40EE00128F7D06868226A22
:101BB00000F48031914204D1616A00F470108842CF
:101BC00001D00120EAE70020E8E700000010024011
:101BD0000000424280044242640000200070004045
:101BE00010B5401EB0F1807F01D3012010BD4FF031
:101BF000E02460610F21601701F02AFA0020A06143
:101C000007202061002010BD7047704770B590F824
:101C10003C20012A19D0012400F83C4F02224270D6
:101C200050F83C3C5A689D6822F070060A68496882
:101C3000324325F0800529435A6050F83C2C9160CE
:101C4000447000210170084670BD022070BD10B5BF
:101C5000040003D094F83D0010B107E0012010BD4E
:101C6000002084F83C00204600F00CF8022084F8A4
:101C70003D00211D206801F0CBF8012084F83D00D3
:101C8000002010BD08B500680B49884212D10B48EE
:101C9000C16941F00401C161C069002200F0040083
:101CA000009011461E20FFF7EDFCBDE808401E2005
:101CB000FFF7DABC08BD0000000800400010024039
:101CC0000168CA6842F00102CA600068816801F0D8
:101CD0000701062903D0016841F0010101600020DD
:101CE000704770B5044690F83C00012817D00125D4
:101CF00084F83C50022084F83D002068826822F07D
:101D0000770222F47F4282600868502830D00DDCD0
:101D100020284DD005DC98B310283BD148E00220A4
:101D200070BD302844D0402834D139E0602828D014
:101D3000702806D0B0F5805F2CD0B0F5005F29D1B7
:101D40000AE0CB68D1E90121206801F097F820680A
:101D5000816841F0770109E0CB68D1E90121206871
:101D600001F08CF82068816841F48041816011E0C5
:101D7000CA684968206801F093F85021206807E09C
:101D800016E0CA684968206801F09BF86021206865
:101D900001F07EF884F83D50002084F83C0070BDCE
:101DA000CA684968206801F07BF840212068EFE7A5
:101DB000226801461046EBE7704770B5044600689C
:101DC00001694FF00005C943890715D4C168C943AB
:101DD000890711D4E91E01610120207720688069FC
:101DE0008007204602D0FFF7E7FF04E000F098F8F4
:101DF000204600F096F8257720680169C943490715
:101E000017D4C168C943490713D46FF004010161B5
:101E1000022020772068806910F4407F204602D09D
:101E2000FFF7CAFF04E000F07BF8204600F079F8E5
:101E3000257720680169C943090716D4C168C943D9
:101E4000090712D46FF0080101610420207720688F
:101E5000C0698007204602D0FFF7AEFF04E000F023
:101E60005FF8204600F05DF8257720680169C943D6
:101E7000C90617D4C168C943C90613D46FF010014D
:101E80000161082020772068C06910F4407F204657
:101E900002D0FFF791FF04E000F042F8204600F086
:101EA00040F8257720680169C943C90708D1C1688E
:101EB000C943C90704D1891E0161204600F032F8E8
:101EC00020680169C943090609D4C168C9430906E4
:101ED00005D46FF0800101612046FFF795FE206870
:101EE0000169C943490609D4C168C943490605D4F3
:101EF0006FF040010161204600F032F8206801696E
:101F0000C94389060BD4C168C943890607D46FF059
:101F1000200101612046BDE87040FFF776BE70BD2C
:101F2000704770470B49884213D10B484168491CE0
:101F300041604168052291FBF2F302FB1311002975
:101F400007D1017881F00101017020210348FEF7DB
:101F5000CFBE7047B0010020000000200008014003
:101F6000704770B5040004D094F83900002510B112
:101F700006E0012070BD84F83850204600F022F8B9
:101F8000242084F839002068C16821F40051C16020
:101F9000204600F0A9FF2068016921F49041016109
:101FA0002068416921F02A0141612068C16841F43B
:101FB0000051C160E563202084F8390084F83A00BC
:101FC000002070BD00B585B0002100910191029103
:101FD000039100680F49884219D10F48C16941F443
:101FE0000031C161C16901F400310491816941F09E
:101FF000040181618069694600F0040004900C20AE
:1020000000900220019003900448FEF781FD05B086
:1020100000BD0000004400400010024000080140E4
:102020002DE9F843044690F839001F4616460D4640
:10203000202850D1A5B19EB194F8380001284AD08B
:10204000012084F838004FF00008C4F83C802120BB
:1020500084F83900FEF758FEA6848146E68426E01F
:102060000120BDE8F883E08C401EE084A0684B4668
:10207000B0F5805F4FF000024FF0800120460097DE
:1020800003D000F08DFFE8B90DE000F089FFC8B97A
:1020900028882168C0F308004860206908B16D1CD9
:1020A00005E0AD1C03E0216815F8010B4860E08CE9
:1020B0000028D8D14B46002240212046009700F04E
:1020C0006FFF08B10320CCE7202084F8390084F8A2
:1020D00038800020C5E70220C3E7FEE701684A69AF
:1020E000D24352050FD46FF480624A61002140F858
:1020F000301F202242738173026942F004020261A0
:10210000017301207047002070472DE9F84F044605
:10211000C06A1E4692460D4621680A6842F48062F3
:102120000A60082807D0012805D010F5803F02D0AA
:10213000206B112804D12068016841F4807101608E
:102140004FF001185346002241462046009600F009
:102150006FF9F0BB206908F10109B0F5804F0FD08D
:102160000620216800EAD51747F0F00008613346E1
:10217000524608F10701204600F08EF948BB03E003
:10218000E8B240F001001BE02168E8B20861334684
:1021900052464946204600F07FF9D0B9206841698F
:1021A00081690091016841F4807101605346002209
:1021B00041462046009600F03BF950B947F0F10047
:1021C00021680861334652464946204600F064F9CA
:1021D00000E001E0002800D00120BDE8F88F0000F9
:1021E000F8B50446C06A1E460D461746082807D0B3
:1021F000012805D010F5803F02D0206B122804D1B1
:102200002068016841F480710160134600224FF09C
:1022100001112046009600F00BF908BB2069B0F5CB
:10222000804F0ED00620216800EAD51040F0F00063
:10223000086133463A460B49204600F02DF978B93B
:1022400002E005F0FE0000E0E8B2216808610549FF
:1022500033463A46891F204600F01EF9002800D078
:102260000120F8BD080001002DE9F84F0446006880
:1022700089460B9D01689846174641F480610160CC
:102280002068016841F48071016000954FF0011AE7
:102290000022514620460A9B00F0CAF8002853D17C
:1022A000216809F0FE0008610AF1010B2B4659462E
:1022B00020460A9A00F0F0F8F0BB20684169806976
:1022C00000902A4620460A9900F064F940B1206C3B
:1022D000042839D12068016841F40071016033E0BD
:1022E000FEB2B8F1010F09D02168380A08612A4608
:1022F00020460A9900F04EF90028E8D120680661CE
:102300002A4620460A9900F045F90028DFD12068C6
:10231000016841F480710160009500225146204619
:102320000A9B00F085F838B9216809F0FF0040F0F9
:10233000010008612B4600E006E0594620460A9A53
:1023400000F0AAF8002800D00120BDE8F88F0000B6
:102350002DE9F843044600680D46DDE90897016859
:102360009846164641F4807101604B4600224FF0BA
:1023700001112046009700F05BF8E0B9216805F0F4
:10238000FE0008613B464A461549204600F084F8A5
:1023900088B920684169806900903A4649462046DC
:1023A00000F0F8F850B1206C042804D120680168CE
:1023B00041F4007101600120BDE8F883F5B2B8F185
:1023C000010F09D02168300A08613A464946204683
:1023D00000F0E0F80028E6D1206805610020EBE776
:1023E0000200010070B516460D4604460DE0204679
:1023F000FFF774FE08B1012070BD681C05D0FEF720
:1024000083FC801BA84207D835B120684069C043CF
:102410004007ECD4002070BD002044F8300F20218C
:102420006173A073216941F0200121612073E2E70B
:102430002DE9F0471E4690460D460446C1F3074776
:10244000DDF8209008E0701C06D0FEF75DFCA0EBE4
:102450000900B0420FD876B12068012F18D08069EA
:1024600025EA00000004000C14D000214145EAD008
:102470000020BDE8F087002044F8300F2021617370
:10248000A073216941F02001216120730120F0E750
:102490004069E5E70121E9E72DE9F0479A469146D1
:1024A0000E46044600254FF02008C1F3074725E0FB
:1024B00020684069C043400514D42068016841F495
:1024C0000071016021686FF480604861256384F8C1
:1024D0003D8084F83E50206C40F00400206484F875
:1024E0003C501FE0B9F1FF3F08D0FEF70DFCA0EB18
:1024F0000A0149450CD8B9F1000F09D02068012F15
:1025000013D0806926EA00000004000C0BD0CFE74E
:1025100044F8305F84F80D80A573206940F02000F6
:10252000206125730120BDE8F0874069EAE72DE9C5
:10253000F041002590460E460446202717E04069EA
:10254000C043C0060CD454F8301B6FF01000486133
:1025500044F810596777A577206A2062257717E03D
:10256000FEF7D2FBA0EB0800B04208D83EB12068CD
:102570004169C9434906E2D40020BDE8F08144F82E
:10258000305F6773A573206940F0200020612573D8
:102590000120F2E770B516460D4604460DE02046D0
:1025A000FFF79CFD08B1012070BD681C05D0FEF747
:1025B000ABFB801BA84207D835B120684069C043F7
:1025C0000006ECD4002070BD002044F8300F20211C
:1025D0006173A073216941F0200121612073E2E75A
:1025E0002DE9FF5F96B024AD044695E88301D4E958
:1025F000082308930692FDF7FAFE3A464346FDF794
:10260000FCFED4E90623FDF751FE07911290D4E9B0
:1026100010A35246384641460993FDF7EEFECDE938
:102620000001D4E90C939B464A46FDF7E0FED4E94D
:102630000E23CDE90B32FDF7DAFED4E90023FDF7D6
:1026400035FE3A464346FDF7D8FED4E90A23FDF7A6
:102650002DFE05460E46DDE900014A465B46FDF7C4
:10266000C9FE8B460490DDE90001DDE90B32FDF780
:10267000C1FE0D910090D4E902013A464346FDF7B0
:10268000BCFE5246099BFDF711FECDE90E01D4E9CF
:10269000042328463146FDF709FE80468A46024655
:1026A0000B4628463146FDF71AFF81460F46424643
:1026B00053460D990098FDF712FF80468A46DDE9E2
:1026C0001801079B129AFDF792FE0B914A463B4672
:1026D0001090FDF792FE079B129AFDF7E7FDC4E903
:1026E000060107911290404651460B9B109AFDF748
:1026F00084FE089B069AFDF7D9FDC4E908010498F9
:1027000006902A46334648463946FDF776FE2A4665
:102710003346FDF76FFEC4E90A015B464846394679
:10272000069AFDF76AFE5B46049AFDF763FEC4E96C
:102730000C012A46334640465146FDF75EFE0D9B8E
:10274000009AFDF757FEC4E90E015B46404651462C
:10275000069AFDF752FEDDE90E23FDF74BFEC4E9B4
:102760001001079912981AB0BDE8F09F2DE9F041C9
:1027700017460D4606460024FDF7FAFF3946304657
:10278000FEF700F829463046FDF7FCFF11D8394620
:102790003046FDF7EDFF0CD829463846FDF736FDEB
:1027A000044629463046FDF731FD2146FDF734FD4C
:1027B00004462046BDE8F0812DE9F04186B0804610
:1027C000012504A8CDE9000564242B467522D021FB
:1027D00002944046FEF7F4FC9DF81000682803D0F0
:1027E000012006B0BDE8F081002703AE8DF80C7023
:1027F0000096CDE9015401236B22D0214046FEF71B
:10280000EFFD07208DF80C000096CDE9015401235F
:102810001922D0214046FEF7E3FD8DF80C7000969A
:10282000CDE9015401231C22D0214046FEF7D8FDFA
:102830008DF80C700096CDE9015401231B22D021A4
:102840004046FEF7CDFD0020CBE700002DE9F04F1C
:1028500089B00C4664230E2204A98DE80E000123E2
:102860003B22D021FEF7ACFCBDF8100040BA00B20C
:102870002080BDF8121049BA09B261808946BDF8BE
:10288000141049BA09B2A1808846BDF8161049BA99
:102890000FFA81FABDF8181049BA0FB22784BDF8B3
:1028A0001A1049BA0EB26684BDF81C1049BA0DB2AE
:1028B000A584FDF7A8FE6FF00D0B5A46FDF77EFECE
:1028C000C4E902014846FDF79EFE5A46FDF776FE32
:1028D000C4E904014046FDF796FE0022614BFDF776
:1028E000FEFDC4E906015046FDF77FFE5E49FDF797
:1028F00093FC5E49FDF738FC20643846FDF783FE03
:102900005B4F00223B46FDF7EAFDC4E90A01304671
:10291000FDF779FE00223B46FDF7E1FDC4E90C011D
:102920002846FDF770FE00223B46FDF7D8FDC4E9BE
:102930000E01FEF7E9F94F4D2968401AFDF774FEC4
:1029400000224D4BFDF7CBFD81468A46FEF7DCF9B0
:102950002860B4F90010B4F90400494300FB0010EA
:10296000FDF751FE01F094FE002205460E46134687
:10297000FDF7B2FE10D0B4F90200FDF744FE2A467E
:102980003346FDF7ACFD01F045F83C4A3C4BFDF702
:1029900034FD0746884601E00027B846B4F9040034
:1029A000FDF731FE0646B4F900000D464042FDF742
:1029B0002AFE32462B4601F03DF9304A304BFDF7F6
:1029C0001CFDDFF8C0B005460E4600225B46FDF751
:1029D00083FE06D2D4E9140100222B4BFDF794FEAE
:1029E0000DD30022284B28463146FDF78DFE0DD22F
:1029F000D4E9140100225B46FDF76EFE06D21D48A5
:102A00005030C0E90656C4E914560DE0CDE9029AEB
:102A1000D4E90C01CDE9000116482A46334650306E
:102A2000FFF7DEFDC4E91401D4E9140121F00041EF
:102A30000022154BFDF768FE03D2E16A81F00041E8
:102A4000E162CDE9029AD4E90C01CDE9000109481F
:102A50003A4643460830FFF7C3FDC4E9120109B006
:102A6000BDE8F08F0029CC400000AA43B81E1242F6
:102A7000006060406800002000408F40F8C1631A89
:102A8000DCA54C40008056C00080564030B585B073
:102A9000002424480094019402940394816941F035
:102AA00010018161816901F010010491816941F097
:102AB00020018161816901F020010491816941F067
:102AC00004018161816901F004010491816941F08F
:102AD000080181618069144D00F008000490002213
:102AE00020212846FEF70BF9681400900F48CDE925
:102AF000010469460E48FEF70BF8202000900120E3
:102B0000CDE901040220039069462846FEF700F84B
:102B1000002211462820FEF7B5FD2820FEF7A4FD6F
:102B200005B030BD00100240000801400000111047
:102B3000001001400D4810B50B4901600C4941607F
:102B400000214FF480428160C0E90312416181613C
:102B5000C1610162FEF7DEF8002803D0BDE8104035
:102B6000FDF798BF10BD0000005400400801002090
:102B7000A08601000D4810B50B4901600C49416069
:102B800000214FF480428160C0E9031241618161FC
:102B9000C1610162FEF7BEF8002803D0BDE8104015
:102BA000FDF778BF10BD0000005800405C01002018
:102BB000A086010010B586B0002417480094019447
:102BC0000294039404941349059401600915C0E923
:102BD000011440F2BF21C0E903148461FFF737F804
:102BE00008B1FDF757FF4FF48050009069460A483E
:102BF000FFF777F808B1FDF74DFF049404A90648E4
:102C00000594FFF703F8002801D0FDF743FF06B055
:102C100010BD000000080040B0010020FEE7704732
:102C2000AFF300800021084600F018B83EB542F22C
:102C300010748DF80400012301AA80210648009435
:102C4000FEF728FA012302AA802103480094FEF728
:102C50001BF99DF808003EBD5C0100201CB5022355
:102C60008DF8040042F210708DF80510009001AA52
:102C700080210248FEF70EFA1CBD00005C01002016
:102C800070472DE9F0410F461546064600241146CF
:102C9000FDF778FD39463046FDF76AFD01D24FF069
:102CA0007E5429463046FDF763FD11D8394630463B
:102CB000FDF768FD0CD839462846FDF7A7FA04460B
:102CC00029463046FDF7A5FA2146FDF7A5FA044648
:102CD0002046BDE8F081704770B5FDF7EAFC4FF083
:102CE00066321B4BFDF789FBFDF726FD04461948AC
:102CF0006FF00B01FDF7CEFA2146FDF78DFA4FF08C
:102D00007E51FDF783FAFDF7D4FC0022124BFDF74C
:102D1000CDFA01F06BF8FDF7B3FC05460020FFF794
:102D200085FF044600F07F0040F010010020FFF70F
:102D300095FFE9B2FE20FFF791FF21460020FFF743
:102D40008DFF44F0A101BDE870400020FFF786BF71
:102D50006666EE3F20BCBE4B0000E03FFEF72CBC99
:102D600030B58FB028216846FDF7F3F914210AA881
:102D7000FDF7EFF902250120049000951020059041
:102D800000244FF46010CDE9084007956846FEF72F
:102D900097FD08B1FDF77EFE0F20CDE90A054FF43F
:102DA0008060CDE90C4002210AA80E94FEF79CFC3D
:102DB000002801D0FDF76EFE0FB030BD0D48016850
:102DC00041F00101016041680B4A11404160016816
:102DD0000A4A11400160016821F4802101604168C4
:102DE00021F4FE0141604FF41F0181600449C003DA
:102DF00008607047001002400000FFF8FFFFF6FE79
:102E000008ED00E00148FEF7D8BF0000B001002047
:102E1000F0B50268164B174C174D4FF0804798429B
:102E200005D0B84203D0A04201D0A84203D122F07D
:102E300070064A683243984205D0B84203D0A04297
:102E400001D0A84203D122F44074CA6822434C69DD
:102E500022F08002224302608A68C2620A688262AB
:102E6000984201D10969016301214161F0BD00006F
:102E7000002C0140000400400008004010B58468A8
:102E800042EA032224F47F440A432243826010BDB5
:102E9000826822F070020A4342F0070181607047A5
:102EA00010B5036A046A24F001040462846924F002
:102EB000F00444EA021423F00A020A438461026225
:102EC00010BD10B5036A23F0100303628369046A1E
:102ED00023F4704343EA023224F0A00343EA0111D1
:102EE0008261016210BD00002DE9F04104460068D6
:102EF0000169E26821F44051114301612169A06830
:102F00000843616908432168CA6841F20C639A4327
:102F10000243CA6020684169A26921F440711143EB
:102F200041611E49206864253226884202D1FEF79D
:102F300081FC01E0FEF76EFC00EBC00101EB00112B
:102F400060686FF018078000B1FBF0F2B2FBF5F299
:102F5000B1FBF0F37A4303EB8202B1FBF0F306EB33
:102F60000212B2FBF5F2B3FBF5F302F0F00202EB52
:102F70000312B1FBF0F3B1FBF0F0B0FBF5F07843D6
:102F800003EB800006EB0010B0FBF5F0216800F0C9
:102F90000F0010448860BDE8F08100000038014057
:102FA0002DE9F041984617460E460446069D1DE061
:102FB000681C1BD02DB1FDF7A7FEA0EB0800A842AE
:102FC00014D92068C16821F4D071C16020684169BA
:102FD00021F001014161202084F8390084F83A0091
:102FE000002084F838000320BDE8F08120680068E4
:102FF00036EA000004D00020B842D9D00020F3E720
:103000000120F9E7FEE700000FB4054B10B503A956
:10301000044A029800F066F910BC5DF814FB000049
:10302000C93E000800010020490050EAC12018BF35
:1030300004204A0D18BF40F0010040F2FF72B2EBCD
:10304000515F08BF40F00200012808BF052070470B
:103050000907090E002804DB00F1E02080F80014C5
:10306000704700F00F0000F1E02080F8141D704759
:103070002DE9F0414F1E00EBC7010446D1E90001E4
:1030800015461E4637F006020DD02A463346FDF798
:10309000B4F97F1E04EBC703D3E90023FDF706F95B
:1030A00037F00602F1D1022F25D0042F13D0062FBE
:1030B00018BFBDE8F0812A463346FDF79EF9D4E9F2
:1030C0000A23FDF7F3F82A463346FDF796F9D4E9CB
:1030D0000823FDF7EBF82A463346FDF78EF9D4E9CD
:1030E0000623FDF7E3F82A463346FDF786F9D4E9CF
:1030F0000423FDF7DBF82A463346FDF77EF9D4E9D1
:103100000223FDF7D3F82A463346FDF776F9D4E9D2
:103110000023BDE8F041FDF7C9B80122FDF74EBA22
:10312000FDF7C4B8024A00201107FDF747BA0000B6
:1031300001FDFFFF02E008C8121F08C1002AFAD1F2
:1031400070477047002001E001C1121F002AFBD127
:10315000704700000149086070470000040100202A
:103160002DE9FF5F82B00021DDE90430020DDDF8BA
:1031700040B0034318D044F61050A2F2FF3242434D
:103180001514119801281FD0A5EB0B00401C5FEA15
:10319000000A4FF000064E4FDFF83891B046504617
:1031A00015D5CAF1000413E0119801244AA301289F
:1031B00001D16FEA0B010298119AC0E90031C0E910
:1031C000024206B0BDE8F09FCBF10000DFE7044605
:1031D0000021404A491842EB0450CDE9001012E0AA
:1031E000E00707D032463B4640464946FDF705F921
:1031F0008046894632463B4610461946FDF7FDF8A3
:1032000006460F466410002CEAD1DDE90401DDE931
:103210000023BAF1000F06DAFDF7EFF842464B46FD
:10322000FDF7EBF805E0FDF75AF942464B46FDF78E
:1032300056F904460E460022284BFDF765FA03D8DE
:103240004FF0FF30014607E00022254B2046314673
:10325000FDF72CF8FDF7EDFB102409E0002C0ADB4C
:103260000A220023FDF7AEFA039B30321A55641E82
:1032700050EA0102F2D1641C039AC4F11103144410
:10328000119A012A03D0012208430DD10AE0084314
:1032900004D000204FF0110B119072E7A3EB0B0547
:1032A0006D1E0DE05B4504DD4FF0000205F10105E8
:1032B00004E003DA4FF00002A5F10105002AECD08A
:1032C00002981199C0E90231C0E9004579E7000090
:1032D000000014400000F03F300000000000F04308
:1032E0000000E03F2DE9FF4F95B09B46894606461A
:1032F00000250FE2252877D100242746F84A01212E
:10330000059400E0044316F8013F203B01FA03F066
:103310001042F7D130782A2811D06FF02F0330787F
:10332000A0F13002092A16D8059A44F0020402EBF3
:10333000820203EB42021044761C0590EFE759F835
:10334000042B0592002A03DA504244F400540590FD
:1033500044F00204761C30782E2816D116F8010F9E
:1033600044F004042A280DD06FF02F023078A0F129
:103370003003092B09D807EB870302EB4303C71877
:10338000761CF3E759F8047B761C30786C280FD054
:1033900006DC4C2817D068280DD06A2814D104E028
:1033A000742810D07A280FD10DE044F400140AE0FC
:1033B00044F4801401E044F440147278824202D153
:1033C00004F58014761C761C307866280BD013DC4C
:1033D000582877D009DC002875D04528F6D0462833
:1033E000F4D047281AD19DE118E0632835D064282D
:1033F00079D0652812D195E1702873D008DC672850
:10340000F1D069286FD06E280DD06F2806D1B5E0B5
:1034100073282CD0752875D0782874D05A461799FF
:1034200090476D1C75E1C4F30250022809D00328AF
:103430000DD0D9F8001004280DD00D6009F1040951
:1034400067E1D9F80010EA17C1E90052F6E7D9F8A8
:1034500000100D80F2E70D70F0E719F8041B8DF8ED
:10346000001000208DF80100EA46012003E059F821
:1034700004AB4FF0FF3061074FF0000102D40DE0C4
:1034800008F101018846B9420FDA8045F8DB1AF8E5
:1034900008100029F4D108E008F1010188468142B2
:1034A000FADB1AF808100029F6D105985B46A0EB64
:1034B000080721463846179A00F094FA284400EB92
:1034C000080507E04DE029E10DE01AF8010B5A4626
:1034D00017999047B8F10108F7D25B462146384664
:1034E000179A13E142E00A220092C4F302524FF00D
:1034F000000A022A08D059F804CB032A4FEAEC71DB
:103500000AD00DE029E02AE009F1070121F00702C5
:10351000F2E802C1914609E00FFA8CFC4FEAEC7127
:10352000042A03D14FFA8CFC4FEAEC71002907DA28
:103530000A460021DCF1000C61EB02012D2202E0C1
:10354000220504D52B228DF80420012203E0E20796
:1035500001D02022F7E7904659E00A2102E010222C
:103560000DE010214FF0000A00910BE010224FF007
:10357000000A44F004040827009203E008224FF0F8
:10358000000A0092C4F30252022A05D059F804CB73
:103590000021032A08D009E009F1070121F0070200
:1035A000F2E802C1914605E01FFA8CFC042A01D121
:1035B0000CF0FF0C4FF00008220728D5702806D029
:1035C000009B83F0100353EA0A0305D00EE040226B
:1035D0008DF80420012208E05CEA010206D03022C6
:1035E0008DF804208DF8050002229046009B83F0A0
:1035F000080353EA0A030AD15CEA010201D1620717
:1036000005D530228DF804204FF001087F1E582880
:1036100004D034A003900EA802900DE036A0F9E784
:1036200053466046009AFDF7CDF884460398825CC5
:103630000298401E029002705CEA0100F0D10298EC
:1036400006A9081A00F1200A600702D524F4803484
:1036500000E00127574502DDA7EB0A0000E000204B
:1036600000EB0A01009005984144401A0590E003E0
:1036700006D45B462146179A059800F0B3F9054435
:10368000002706E001A85A46C05D179990476D1CB7
:103690007F1C4745F6DBE0030CD55B462146179AB5
:1036A000059800F09FF9054404E030205A46179928
:1036B00090476D1C0099481E00900029F5DC08E039
:1036C000029802995A460078491C0291179990472E
:1036D0006D1CBAF10001AAF1010AF1DC65E10000FC
:1036E00009280100303132333435363738396162D8
:1036F000636465660000000030313233343536379C
:1037000038394142434445460000000000F058F972
:103710000544761C307800287FF4ECAD19B02846BB
:10372000BDE8F08F620700D4062709F1070222F0F6
:10373000070CFCE80223E14603F000485FEA080CAE
:1037400002D00FF2702C0DE05FEA045C02D50FF29C
:10375000682C07E05FEAC47C02D00FF2602C01E025
:10376000AFF2700C4FF0FF3823F00043CDF850C09B
:1037700065280CD006DC452809D046281DD04728EE
:103780003DD13DE0662818D067287ED138E0002181
:10379000112F01DB112000E0781CCDE9000106A902
:1037A0000EA8FFF7DDFCDDE90F010E9A0391002161
:1037B000009207F1010A04914DE04FF0004000979C
:1037C000CDE9011006A90EA8FFF7CAFCDDE90F023A
:1037D00003920E9B11990022DDF80CA00093049235
:1037E00011B9791C00EB010AB7EB0A0004D4C0F14F
:1037F000FF3007F1010A0490AAEB0700019044E0B2
:10380000012F00DA01270021112F01DD112000E036
:103810003846CDE9000106A90EA8FFF7A1FCDDE9B5
:103820000F010E9A0391002104910092BA462107DC
:103830000CD40399514500DA8A46BAF1010F05DD2F
:10384000009AAAF10101515C302908D0B84202DA8D
:1038500010F1040F06DA0121CDE9011015E0AAF1FB
:103860000101E9E7002805DC049901440491AAEB71
:10387000000102E0411C514500DD8A460499401ACE
:10388000401C01904FF000400290200704D40198A2
:10389000504501DBCDF8048000208DF84F000298E0
:1038A0000DF14F07B0F1004F25D02B200E9002985C
:1038B0004FF0020800280CDA404202902D200E90B2
:1038C00007E00A210298FCF767FF3031029007F801
:1038D000011DB8F10001A8F10108F2DC02980028EE
:1038E000EFD1791E0E980870307800F0200040F07B
:1038F000450007F8020D12A8C01B00F10708149834
:10390000007800B1012000EB0A01019801EBE071A1
:1039100005984144401A401E0590E00306D45B46DA
:103920002146179A059800F05DF805441498007830
:1039300018B15A46179990476D1CE00324D55B4691
:103940002146179A059800F04DF805441CE00498AC
:10395000002807DBDDE90301884203DD0098405CB5
:10396000179901E0179930205A469047049805F1BD
:103970000105401C04900198401E019004D12E20A6
:103980005A46179990476D1CBAF10001AAF1010A35
:10399000DDDC05E017F8010B5A46179990476D1CBE
:1039A000B8F10001A8F10108F4DC5B462146179A42
:1039B0000598ABE62D0000002B0000002000000061
:1039C0002DE9F041044600251E461746880404D41C
:1039D00005E039462020B0476D1C641EF9D5284605
:1039E000BDE8F0812DE9F041044600251E469046D1
:1039F000C80301D5302700E02027880404D505E05E
:103A000041463846B0476D1C641EF9D52846BDE8CE
:103A1000F08100002DE9F84F04460D4621F00040EA
:103A200000917349814211DC7249884201DC06D160
:103A30002CB120462946BDE8F84FFFF76EBB6E4813
:103A4000002DCCBF6D496E49BDE8F88F6D498142AC
:103A500011DD6D498142D8BF4FF0FF366DDD204644
:103A60002946FFF7E1FA042808BFFFF75BFB204671
:103A70002946BDE8F88F6549654F25F0004581422C
:103A800033DD6449814219DD002632464FF0804320
:103A900020462946FCF70AFC80468A460122204639
:103AA0002946FCF78BFD00223B46FCF7A0FC424672
:103AB0005346FCF714FD04460D463EE00126002265
:103AC000BA463B4620462946FCF7F0FB80460F46A7
:103AD0000022534620462946FCF789FC42463B46D5
:103AE000FCF7FDFC04460D4627E04B4981421BDDF7
:103AF000DFF828A102260022534620462946FCF77B
:103B00007CFC00223B46FCF7D1FB80460F4600229E
:103B1000534620462946FCF76AFC42463B46FCF7E2
:103B2000DEFC04460D4608E0032622462B46002014
:103B30003B49FCF7D4FC04460D4622462B46104672
:103B40001946FCF75AFC8B46824602460B46FCF7A8
:103B500054FC07460246334888460B460621784403
:103B6000FFF786FA52465B46FCF747FC82462E4832
:103B70008B463A46434605217844FFF779FA3A46A0
:103B80004346FCF73AFC02460B46002E5046594687
:103B90000CDAFCF78BFB22462B46FCF72EFC01B01F
:103BA00022462B46BDE8F04FFCF724BCFCF77EFB19
:103BB00022462B46FCF721FC1C4A7A4402EBC60342
:103BC000D3E90023FCF713FC22462B46FCF70FFC3D
:103BD000174A7A4402EBC603D3E90023FCF70AFC38
:103BE000009A002AB8BF81F00041BDE8F88F0000BC
:103BF000000010440000F07F182D4454FB21F93FD1
:103C0000FB21F9BF0000DC3F0000203E0000F33F35
:103C10000000F03F0000E63F008003400000F83F56
:103C20000000F0BF160D0000D40C0000720C000064
:103C30003A0C00002DE9F04D9446CCF1000423F03D
:103C400000464CEA0404524F46EAD4749A46884629
:103C500021F00042BC4206D8454240EA050442EA4F
:103C6000D474BC4204D9BDE8F04D6246FFF758BA9F
:103C7000AAF14055A5F17F6555EA0C040BD002244A
:103C800004EAAA74434DDFF810E144EAD87452EA1A
:103C9000000B04D00CE0BDE8F04DFFF7BBBE002CDC
:103CA00014BF012CBDE8F08D022C30D0032C32D093
:103CB00056EA0C0B0AD0BE4220D1BA4209D126F0F6
:103CC000804622F080423346114617E000291ADB75
:103CD00025E0DFF8C8B0FB44002C04BFDBE900019D
:103CE000BDE8F08D012C02BFDBE9000181F000414D
:103CF000BDE8F08D022C0AD0032C0CD0BA4212D1B0
:103D0000B8F1000F0BDA23482549BDE8F08D2846AD
:103D10002449BDE8F08D28467146BDE8F08D1D4868
:103D20002149BDE8F08D921B12153C2AC4BF1948E9
:103D30001D490EDCBAF1000FBEBF12F13C0F00208E
:103D4000014606DB6246FCF7CAFB21F00041FFF7A3
:103D500061FE002C08BFBDE8F08D012C04BF81F08E
:103D60000041BDE8F08D114A114B022C07D0FCF741
:103D70003EFB2A46BDE8F04D0A4BFCF738BBFCF78A
:103D800036FB2A46BDE8F04D064BFCF733BB00007E
:103D90000000F07F182D4454FB2109C0CE0B000019
:103DA000FB21F9BFFB210940FB21F93F075C1433DC
:103DB00026A6A13C10B5FCF721FC0849FCF72CFA1B
:103DC000FCF777FC0022064BFCF770FA054A064B1D
:103DD000FCF713FBFCF754FC80B210BD0000B442AA
:103DE0000000E03F9A999999999969402DE9F0412D
:103DF000C1F30A52A2F2FF362F4A304B0D46044659
:103E0000142E2FDA002E12DAFCF750FA0022134695
:103E1000FCF77AFC4CD2002DA4BF0024254647DADB
:103E200025F00040204318BF254D41D018E0DFF8B1
:103E300094C02CFA06F705EA070C5CEA040C08BFEC
:103E4000BDE8F081FCF732FA00221346FCF75CFC77
:103E50002ED2002D03DA4FF48010F0400544BD430C
:103E6000002425E0332EC8BFBDE8F081A6F1140C74
:103E70004FF0FF3727FA0CF73C4208BFBDE8F0814E
:103E8000FCF7B8FA00221346FCF73EFC10D2002DD6
:103E90000DDA142E08BF6D1C09D0C6F134000121C3
:103EA00001FA00F02044A04238BF6D1C0446BC4318
:103EB00029462046BDE8F0819C7500883CE4377EA9
:103EC0000000F0BFFFFF0F0013B54FF6FF73012294
:103ED00069460248FEF7A4F800981CBDF0010020D6
:103EE0001CB5FDF771FBFEF73BFFFEF7CFFD8748E2
:103EF00085490C2201604FF4E1314160002181606D
:103F0000C160C0E904128161C161FEF72AF808B1FD
:103F1000FCF7C0FDFEF70EFEFEF72CFEFEF74AFE94
:103F20007BA0FFF771F881A0FFF76EF87748E838BB
:103F3000FEF742FC0128F9D074484038FDF7C0FE76
:103F400083A0FFF761F8FEF76BFE8B48FEF7C4FE17
:103F50006220FFF72FFF0146022000F077FB5B2075
:103F6000FFF728FF0146002000F070FBC820FCF797
:103F7000AFFD664D814C403520780028FCD0634968
:103F80004031A1F59470FEF761FC6078A8B3D5E9E3
:103F90001201D4E90E23FCF72AFAC4E912010646FD
:103FA0000F46D5E91401D4E91023FCF720FAC4E93F
:103FB0001401A278002A57D0FCF743FB8046304614
:103FC0003946FCF73EFB014642466DA0FFF71CF860
:103FD000D4E9120100F03AF9E06021690844206157
:103FE000D4E9140100F032FAA061E1690844E0610B
:103FF0002169712940DB712141E0FFE7D5E91423F4
:10400000D4E90C0190469946FCF750F9C4E90C013B
:10401000D5E91223D4E90A0116461F46FCF746F9F2
:10402000C4E90A01A07870B140464946FCF709FB93
:10403000804630463946FCF704FB0146424650A014
:10404000FEF7E2FF41E05148A168FEF7DDFFD5E948
:104050001401CDE90001D5E912234DA0FEF7D4FFEC
:1040600055A0FEF7D1FF30E0CDE9000132463B46D6
:104070005DA0FEF7C9FFABE7532901DC53212161A5
:104080006A2801DB6A2002E04C2801DC4C20E06158
:10409000A07818B95FA0E269FEF7B6FF208A80B267
:1040A000FFF788FE0146022000F0D0FAA08B80B214
:1040B000FFF780FE0146002000F0C8FAC820FCF798
:1040C00007FD20696061E0692062A068C82814D1FA
:1040D000607890B9012060705B4ED4E90A0100223B
:1040E0003346FCF7FCF9C4E90E01D4E90C010022C7
:1040F0003346FCF7F4F9C4E910013AA0FEF784FF57
:10410000A068401CA06037E700440040F001002098
:104110005B53595354454D5D2053797374656D203D
:104120007374617274732E2E2E0D0A005B535953F3
:1041300054454D5D20436F6E6E656374696E6720F4
:10414000746F204D5055363035302E2E2E0D0A000E
:104150005B53595354454D5D20436F6E6E656374D8
:10416000696F6E2065737461626C69736865642E33
:104170002E2E0D0A00000000000048420000002022
:104180002425642025643B0D0A000000B048000887
:104190005B4C4F475D20583A20252E3266206465DF
:1041A00067726565207C20593A20252E326620648E
:1041B00065677265650D0A005B53595354454D5D43
:1041C000506C6561736520646F206E6F74206D6F35
:1041D000766520796F7572206779726F2073656ECE
:1041E000736F72210D0A00005B4C4F475D20536DC9
:1041F0006F6F7468656420583A20252E3266207CE3
:1042000020536D6F6F7468656420593A20252E32F3
:10421000660D0A00736572766F5F636F6E74726FFE
:104220006C5B70697463685D3A2564202020736557
:1042300072766F5F636F6E74726F6C5B7261775DC5
:104240003A25640D0A000000000069402DE9FC5F7A
:104250006A4FDFF8AC816B4E6B4DDFF8B091FCF725
:104260006BFA00232A463146019000F083FA044697
:104270003A4641460198FEF704FD2146FCF782FAD2
:10428000019804D23A464146FEF7FBFC04E00023C5
:104290002A46314600F06EFAFCF70BFA82468B464E
:1042A0004FF080434C4601985A422946CDF8009081
:1042B00000F014FA074600232A463146019800F020
:1042C00059FA3946FCF75EFA019805D200232A46CE
:1042D000314600F04FFA06E04FF080435A4229463B
:1042E000009400F0FBF9FCF7E4F980468946484B5E
:1042F00022460021019800F03DFA4FF08043064627
:104300005F4201983A462946009400F0E7F93146A9
:10431000FCF738FA019806D27B423A4629460094C7
:1043200000F0DCF904E03A4B2246002100F022FACA
:10433000FCF7BFF906460F46364A4FF08141019817
:10434000FEF714FA0546324B22460021019800F090
:1043500011FA2946FCF716FA019805D22C4B224691
:10436000002100F007FA04E02A4A4FF08141FEF7ED
:10437000FDF9FCF79EF905460C4642464B46504671
:104380005946FCF7C1F902D25046594601E0404671
:104390004946804689462A46234630463946FCF738
:1043A000B3F901D32E46274642464B461AA0CDE923
:1043B0000067FEF729FE00221B4B30463946FCF70A
:1043C0001CF805460C460022184B40464946FCF7AF
:1043D00014F82A462346FBF769FF044614480D46A5
:1043E000807820B922460B4612A0FEF70DFE20462B
:1043F0002946BDE8FC5FFCF724B90000000080C03E
:10440000000070C1000020C10000C0C00000C0401A
:104410000000204100007041693A252E3266206A72
:104420003A252E32660D0A0000002EC000002E40F4
:1044300000000020536572766F5F61646A75737463
:104440003A20252E32660D0A000000002DE9FC5F9F
:104450006A4FDFF8AC816B4E6B4DDFF8B091FCF723
:104460006BF900232A463146019000F083F9044697
:104470003A4641460198FEF704FC2146FCF782F9D2
:10448000019804D23A464146FEF7FBFB04E00023C4
:104490002A46314600F06EF9FCF70BF982468B464E
:1044A0004FF080434C4601985A422946CDF800907F
:1044B00000F014F9074600232A463146019800F01F
:1044C00059F93946FCF75EF9019805D200232A46CE
:1044D000314600F04FF906E04FF080435A4229463A
:1044E000009400F0FBF8FCF7E4F880468946484B5E
:1044F00022460021019800F03DF94FF08043064626
:104500005F4201983A462946009400F0E7F83146A8
:10451000FCF738F9019806D27B423A4629460094C6
:1045200000F0DCF804E03A4B2246002100F022F9CA
:10453000FCF7BFF806460F46364A4FF08141019816
:10454000FEF714F90546324B22460021019800F08F
:1045500011F92946FCF716F9019805D22C4B224691
:10456000002100F007F904E02A4A4FF08141FEF7EC
:10457000FDF8FCF79EF805460C4642464B46504671
:104580005946FCF7C1F802D25046594601E0404670
:104590004946804689462A46234630463946FCF736
:1045A000B3F801D32E46274642464B461AA0CDE922
:1045B0000067FEF729FD00221B4B30463946FBF70A
:1045C0001CFF05460C460022184B40464946FBF7A7
:1045D00014FF2A462346FBF769FE044614480D469D
:1045E000807820B922460B4612A0FEF70DFD20462A
:1045F0002946BDE8FC5FFCF724B80000000080C03D
:10460000000070C1000020C10000C0C00000C04018
:104610000000204100007041693A252E3266206A70
:104620003A252E32660D0A0000002EC000002E40F2
:1046300000000020536572766F5F61646A75737461
:104640003A20252E32660D0A0000000070B504469F
:1046500006200D4600EB8400C0B20021FEF7FEFAF2
:10466000072000EB8400C0B20021FEF7F7FA082013
:1046700000EB8400E9B2C0B2FEF7F0FA092000EBCB
:104680008400C5F30721BDE87040C0B2FEF7E6BA6A
:104690002DE9F04106460F46FCF77AF9041E0D4657
:1046A00018BF0120284320F00040C0F17F6000F1D6
:1046B000E040C00F0ED0301C18BF0120384320F05E
:1046C0000040C0F17F6000F1E040C00F04BF012056
:1046D000FEF740FD20462946BDE8F0812DE9F04770
:1046E0001F461546884681460024089EFCF740F880
:1046F00003D331464846FCF745F841464846FCF7A7
:1047000041F811D829464846FCF732F80CD8414602
:104710002846FBF77BFD044641464846FBF776FDFD
:104720002146FBF779FD044629464846FCF72AF85E
:1047300006D839464846FCF71BF801D84FF07E549E
:1047400039464846FCF71EF811D831464846FCF772
:104750000FF80CD839463046FBF758FD0446314671
:104760004846FBF756FD2146FBF756FD044620461A
:10477000BDE8F0872DE9F0411D4616460F468046FC
:104780000024FBF7F5FF39464046FBF7FBFF11D24B
:1047900031464046FBF7ECFF0CD839463046FBF774
:1047A00035FD044639464046FBF730FD2146FBF710
:1047B00033FD044629464046FBF7DAFF11D2314665
:1047C0004046FBF7DFFF0CD231462846FBF71EFDC3
:1047D000044629464046FBF71CFD2146FBF71CFD1D
:1047E000044629464046FBF7CDFF00D8002420466A
:1047F000BDE8F08100000000000000000102030499
:104800000607080900000000010203040000000080
:104810004FBB610567ACDD3F182D4454FB21E93FD8
:104820009BF681D20B73EF3F182D4454FB21F93FC7
:10483000E2652F227F2B7A3C075C143326A6813C4D
:10484000BDCBF07A8807703C075C143326A6913CF8
:10485000C4EB98999999C9BF711623FEC671BCBF64
:104860006D9A74AFF2B0B3BF9AFDDE522DDEADBFCC
:104870002F6C6A2C44B4A2BF0D5555555555D53FE4
:10488000FF8300922449C23F6E204CC5CD45B73FFF
:10489000513DD0A0660DB13FEB0D76244B7BA93F77
:1048A00011DA22E33AAD903F000000000000000062
:1048B0005B4C4F475D20436F756E7465723A25649B
:1048C000207C204B616C6D616E2046696C74657252
:1048D0003A20456E61626C6564207C204176657289
:1048E0006167652046696C7465723A2050656E6434
:1048F000696E670D0A0000001849000800000020DA
:104900000801000034310008204A00080801002096
:104910008005000044310008000001000000000094
:104920000000000000000000620000000000000025
:10493000000000005B00000000000000000000001C
:104940000000000000000000000000000000000067
:104950000000000000000000000000000000000057
:104960000000000000000000000000000000000047
:104970000100000010000000000000000024F4000E
:104980000000000000000000000000E04D62503F09
:10499000000000C07493683F000000E051B89E3FE3
:1049A0000000000000000000000000000000000007
:1049B00000000000000000000000000000000000F7
:1049C00000000000000000000000000000000000E7
:1049D000000000E04D62503F000000C07493683F4B
:1049E000000000E051B89E3F000000000000000001
:1049F00000000000000000000000000000000000B7
:104A000000000000000000000000000000000000A6
:104A10000000000000000000000000000000000096
:04000005080000ED02
:00000001FF
